{
  "address": "0x3159ad0b32779892Ea9e9e0990422dA45Cc8c139",
  "abi": [
    {
      "inputs": [],
      "name": "ECDSAInvalidSignature",
      "type": "error"
    },
    {
      "inputs": [
        {
          "internalType": "uint256",
          "name": "length",
          "type": "uint256"
        }
      ],
      "name": "ECDSAInvalidSignatureLength",
      "type": "error"
    },
    {
      "inputs": [
        {
          "internalType": "bytes32",
          "name": "s",
          "type": "bytes32"
        }
      ],
      "name": "ECDSAInvalidSignatureS",
      "type": "error"
    },
    {
      "inputs": [],
      "name": "InvalidInitialization",
      "type": "error"
    },
    {
      "inputs": [],
      "name": "NotInitializing",
      "type": "error"
    },
    {
      "inputs": [
        {
          "internalType": "address",
          "name": "owner",
          "type": "address"
        }
      ],
      "name": "OwnableInvalidOwner",
      "type": "error"
    },
    {
      "inputs": [
        {
          "internalType": "address",
          "name": "account",
          "type": "address"
        }
      ],
      "name": "OwnableUnauthorizedAccount",
      "type": "error"
    },
    {
      "inputs": [],
      "name": "ReentrancyGuardReentrantCall",
      "type": "error"
    },
    {
      "anonymous": false,
      "inputs": [],
      "name": "Closed",
      "type": "event"
    },
    {
      "anonymous": false,
      "inputs": [
        {
          "indexed": true,
          "internalType": "address",
          "name": "consumer",
          "type": "address"
        },
        {
          "indexed": false,
          "internalType": "uint256",
          "name": "amount",
          "type": "uint256"
        }
      ],
      "name": "ConsumeGas",
      "type": "event"
    },
    {
      "anonymous": false,
      "inputs": [],
      "name": "EIP712DomainChanged",
      "type": "event"
    },
    {
      "anonymous": false,
      "inputs": [
        {
          "indexed": false,
          "internalType": "uint64",
          "name": "version",
          "type": "uint64"
        }
      ],
      "name": "Initialized",
      "type": "event"
    },
    {
      "anonymous": false,
      "inputs": [
        {
          "indexed": false,
          "internalType": "uint256",
          "name": "blockRange",
          "type": "uint256"
        }
      ],
      "name": "NewBlockRange",
      "type": "event"
    },
    {
      "anonymous": false,
      "inputs": [
        {
          "indexed": true,
          "internalType": "contract IExecutionDelegate",
          "name": "executionDelegate",
          "type": "address"
        }
      ],
      "name": "NewExecutionDelegate",
      "type": "event"
    },
    {
      "anonymous": false,
      "inputs": [
        {
          "indexed": false,
          "internalType": "address",
          "name": "governor",
          "type": "address"
        }
      ],
      "name": "NewGovernor",
      "type": "event"
    },
    {
      "anonymous": false,
      "inputs": [
        {
          "indexed": true,
          "internalType": "address",
          "name": "trader",
          "type": "address"
        },
        {
          "indexed": false,
          "internalType": "uint256",
          "name": "newNonce",
          "type": "uint256"
        }
      ],
      "name": "NonceIncremented",
      "type": "event"
    },
    {
      "anonymous": false,
      "inputs": [],
      "name": "Opened",
      "type": "event"
    },
    {
      "anonymous": false,
      "inputs": [
        {
          "indexed": false,
          "internalType": "bytes32",
          "name": "hash",
          "type": "bytes32"
        }
      ],
      "name": "OrderCancelled",
      "type": "event"
    },
    {
      "anonymous": false,
      "inputs": [
        {
          "indexed": true,
          "internalType": "address",
          "name": "maker",
          "type": "address"
        },
        {
          "indexed": true,
          "internalType": "address",
          "name": "taker",
          "type": "address"
        },
        {
          "components": [
            {
              "internalType": "address",
              "name": "seller",
              "type": "address"
            },
            {
              "internalType": "enum AssetType",
              "name": "assetType",
              "type": "uint8"
            },
            {
              "internalType": "address",
              "name": "collection",
              "type": "address"
            },
            {
              "internalType": "uint256",
              "name": "tokenId",
              "type": "uint256"
            },
            {
              "internalType": "uint256",
              "name": "amount",
              "type": "uint256"
            },
            {
              "internalType": "address",
              "name": "paymentToken",
              "type": "address"
            },
            {
              "internalType": "uint256",
              "name": "price",
              "type": "uint256"
            },
            {
              "internalType": "uint256",
              "name": "listingTime",
              "type": "uint256"
            },
            {
              "internalType": "uint256",
              "name": "expirationTime",
              "type": "uint256"
            },
            {
              "internalType": "uint256",
              "name": "salt",
              "type": "uint256"
            }
          ],
          "indexed": false,
          "internalType": "struct Order",
          "name": "order",
          "type": "tuple"
        }
      ],
      "name": "OrdersMatched",
      "type": "event"
    },
    {
      "anonymous": false,
      "inputs": [
        {
          "indexed": true,
          "internalType": "address",
          "name": "previousOwner",
          "type": "address"
        },
        {
          "indexed": true,
          "internalType": "address",
          "name": "newOwner",
          "type": "address"
        }
      ],
      "name": "OwnershipTransferred",
      "type": "event"
    },
    {
      "inputs": [],
      "name": "NAME",
      "outputs": [
        {
          "internalType": "string",
          "name": "",
          "type": "string"
        }
      ],
      "stateMutability": "view",
      "type": "function"
    },
    {
      "inputs": [],
      "name": "ORDER_TYPEHASH",
      "outputs": [
        {
          "internalType": "bytes32",
          "name": "",
          "type": "bytes32"
        }
      ],
      "stateMutability": "view",
      "type": "function"
    },
    {
      "inputs": [],
      "name": "SPTOKEN",
      "outputs": [
        {
          "internalType": "address",
          "name": "",
          "type": "address"
        }
      ],
      "stateMutability": "view",
      "type": "function"
    },
    {
      "inputs": [],
      "name": "VERSION",
      "outputs": [
        {
          "internalType": "string",
          "name": "",
          "type": "string"
        }
      ],
      "stateMutability": "view",
      "type": "function"
    },
    {
      "inputs": [
        {
          "components": [
            {
              "components": [
                {
                  "internalType": "address",
                  "name": "seller",
                  "type": "address"
                },
                {
                  "internalType": "enum AssetType",
                  "name": "assetType",
                  "type": "uint8"
                },
                {
                  "internalType": "address",
                  "name": "collection",
                  "type": "address"
                },
                {
                  "internalType": "uint256",
                  "name": "tokenId",
                  "type": "uint256"
                },
                {
                  "internalType": "uint256",
                  "name": "amount",
                  "type": "uint256"
                },
                {
                  "internalType": "address",
                  "name": "paymentToken",
                  "type": "address"
                },
                {
                  "internalType": "uint256",
                  "name": "price",
                  "type": "uint256"
                },
                {
                  "internalType": "uint256",
                  "name": "listingTime",
                  "type": "uint256"
                },
                {
                  "internalType": "uint256",
                  "name": "expirationTime",
                  "type": "uint256"
                },
                {
                  "internalType": "uint256",
                  "name": "salt",
                  "type": "uint256"
                }
              ],
              "internalType": "struct Order",
              "name": "order",
              "type": "tuple"
            },
            {
              "internalType": "bytes",
              "name": "signatureBuyer",
              "type": "bytes"
            },
            {
              "internalType": "bytes",
              "name": "signatureSeller",
              "type": "bytes"
            }
          ],
          "internalType": "struct Input",
          "name": "input",
          "type": "tuple"
        }
      ],
      "name": "_execute",
      "outputs": [],
      "stateMutability": "payable",
      "type": "function"
    },
    {
      "inputs": [],
      "name": "blockRange",
      "outputs": [
        {
          "internalType": "uint256",
          "name": "",
          "type": "uint256"
        }
      ],
      "stateMutability": "view",
      "type": "function"
    },
    {
      "inputs": [
        {
          "components": [
            {
              "internalType": "address",
              "name": "seller",
              "type": "address"
            },
            {
              "internalType": "enum AssetType",
              "name": "assetType",
              "type": "uint8"
            },
            {
              "internalType": "address",
              "name": "collection",
              "type": "address"
            },
            {
              "internalType": "uint256",
              "name": "tokenId",
              "type": "uint256"
            },
            {
              "internalType": "uint256",
              "name": "amount",
              "type": "uint256"
            },
            {
              "internalType": "address",
              "name": "paymentToken",
              "type": "address"
            },
            {
              "internalType": "uint256",
              "name": "price",
              "type": "uint256"
            },
            {
              "internalType": "uint256",
              "name": "listingTime",
              "type": "uint256"
            },
            {
              "internalType": "uint256",
              "name": "expirationTime",
              "type": "uint256"
            },
            {
              "internalType": "uint256",
              "name": "salt",
              "type": "uint256"
            }
          ],
          "internalType": "struct Order",
          "name": "order",
          "type": "tuple"
        }
      ],
      "name": "cancelOrder",
      "outputs": [],
      "stateMutability": "nonpayable",
      "type": "function"
    },
    {
      "inputs": [
        {
          "internalType": "bytes32",
          "name": "",
          "type": "bytes32"
        }
      ],
      "name": "cancelledOrFilled",
      "outputs": [
        {
          "internalType": "bool",
          "name": "",
          "type": "bool"
        }
      ],
      "stateMutability": "view",
      "type": "function"
    },
    {
      "inputs": [],
      "name": "close",
      "outputs": [],
      "stateMutability": "nonpayable",
      "type": "function"
    },
    {
      "inputs": [],
      "name": "eip712Domain",
      "outputs": [
        {
          "internalType": "bytes1",
          "name": "fields",
          "type": "bytes1"
        },
        {
          "internalType": "string",
          "name": "name",
          "type": "string"
        },
        {
          "internalType": "string",
          "name": "version",
          "type": "string"
        },
        {
          "internalType": "uint256",
          "name": "chainId",
          "type": "uint256"
        },
        {
          "internalType": "address",
          "name": "verifyingContract",
          "type": "address"
        },
        {
          "internalType": "bytes32",
          "name": "salt",
          "type": "bytes32"
        },
        {
          "internalType": "uint256[]",
          "name": "extensions",
          "type": "uint256[]"
        }
      ],
      "stateMutability": "view",
      "type": "function"
    },
    {
      "inputs": [
        {
          "components": [
            {
              "components": [
                {
                  "internalType": "address",
                  "name": "seller",
                  "type": "address"
                },
                {
                  "internalType": "enum AssetType",
                  "name": "assetType",
                  "type": "uint8"
                },
                {
                  "internalType": "address",
                  "name": "collection",
                  "type": "address"
                },
                {
                  "internalType": "uint256",
                  "name": "tokenId",
                  "type": "uint256"
                },
                {
                  "internalType": "uint256",
                  "name": "amount",
                  "type": "uint256"
                },
                {
                  "internalType": "address",
                  "name": "paymentToken",
                  "type": "address"
                },
                {
                  "internalType": "uint256",
                  "name": "price",
                  "type": "uint256"
                },
                {
                  "internalType": "uint256",
                  "name": "listingTime",
                  "type": "uint256"
                },
                {
                  "internalType": "uint256",
                  "name": "expirationTime",
                  "type": "uint256"
                },
                {
                  "internalType": "uint256",
                  "name": "salt",
                  "type": "uint256"
                }
              ],
              "internalType": "struct Order",
              "name": "order",
              "type": "tuple"
            },
            {
              "internalType": "bytes",
              "name": "signatureBuyer",
              "type": "bytes"
            },
            {
              "internalType": "bytes",
              "name": "signatureSeller",
              "type": "bytes"
            }
          ],
          "internalType": "struct Input",
          "name": "order",
          "type": "tuple"
        }
      ],
      "name": "execute",
      "outputs": [],
      "stateMutability": "payable",
      "type": "function"
    },
    {
      "inputs": [],
      "name": "executionDelegate",
      "outputs": [
        {
          "internalType": "contract IExecutionDelegate",
          "name": "",
          "type": "address"
        }
      ],
      "stateMutability": "view",
      "type": "function"
    },
    {
      "inputs": [],
      "name": "incrementNonce",
      "outputs": [],
      "stateMutability": "nonpayable",
      "type": "function"
    },
    {
      "inputs": [
        {
          "internalType": "address",
          "name": "_owner",
          "type": "address"
        },
        {
          "internalType": "contract IExecutionDelegate",
          "name": "_executionDelegate",
          "type": "address"
        }
      ],
      "name": "initialize",
      "outputs": [],
      "stateMutability": "nonpayable",
      "type": "function"
    },
    {
      "inputs": [],
      "name": "isInternal",
      "outputs": [
        {
          "internalType": "bool",
          "name": "",
          "type": "bool"
        }
      ],
      "stateMutability": "view",
      "type": "function"
    },
    {
      "inputs": [],
      "name": "isOpen",
      "outputs": [
        {
          "internalType": "uint256",
          "name": "",
          "type": "uint256"
        }
      ],
      "stateMutability": "view",
      "type": "function"
    },
    {
      "inputs": [
        {
          "internalType": "address",
          "name": "",
          "type": "address"
        }
      ],
      "name": "nonces",
      "outputs": [
        {
          "internalType": "uint256",
          "name": "",
          "type": "uint256"
        }
      ],
      "stateMutability": "view",
      "type": "function"
    },
    {
      "inputs": [],
      "name": "open",
      "outputs": [],
      "stateMutability": "nonpayable",
      "type": "function"
    },
    {
      "inputs": [],
      "name": "owner",
      "outputs": [
        {
          "internalType": "address",
          "name": "",
          "type": "address"
        }
      ],
      "stateMutability": "view",
      "type": "function"
    },
    {
      "inputs": [],
      "name": "remainingETH",
      "outputs": [
        {
          "internalType": "uint256",
          "name": "",
          "type": "uint256"
        }
      ],
      "stateMutability": "view",
      "type": "function"
    },
    {
      "inputs": [],
      "name": "renounceOwnership",
      "outputs": [],
      "stateMutability": "nonpayable",
      "type": "function"
    },
    {
      "inputs": [
        {
          "internalType": "uint256",
          "name": "_blockRange",
          "type": "uint256"
        }
      ],
      "name": "setBlockRange",
      "outputs": [],
      "stateMutability": "nonpayable",
      "type": "function"
    },
    {
      "inputs": [
        {
          "internalType": "contract IExecutionDelegate",
          "name": "_executionDelegate",
          "type": "address"
        }
      ],
      "name": "setExecutionDelegate",
      "outputs": [],
      "stateMutability": "nonpayable",
      "type": "function"
    },
    {
      "inputs": [
        {
          "internalType": "address",
          "name": "newOwner",
          "type": "address"
        }
      ],
      "name": "transferOwnership",
      "outputs": [],
      "stateMutability": "nonpayable",
      "type": "function"
    }
  ],
  "transactionHash": "0xd4d3297f93cdf5027c2e786dbc3949032675e4a7459da6489fc0837aea540640",
  "args": [],
  "numDeployments": 8,
  "solcInputHash": "09ab32d6973ed057e7fd76f6370eee05",
  "bytecode": "0x60806040526000600560006101000a81548160ff021916908315150217905550600060065534801561003057600080fd5b50613c57806100406000396000f3fe60806040526004361061014b5760003560e01c8063715018a6116100b6578063a4b2c6741161006f578063a4b2c6741461042d578063eecac12214610458578063f2fde38b14610474578063f973a2091461049d578063fcfff16f146104c8578063ffa1ad74146104df5761014b565b8063715018a6146103275780637ecebe001461033e57806384b0196e1461037b5780638da5cb5b146103ac578063986c9b20146103d7578063a3f4df7e146104025761014b565b806343d726d61161010857806343d726d61461023f57806347535d7b14610256578063485cc955146102815780635511f319146102aa578063627cdcb9146102e75780636992aa36146102fe5761014b565b8063037c9be21461015057806316e29d71146101795780631728ac68146101a4578063254bd15c146101cf5780632b51acae146101f85780632c7acf8c14610214575b600080fd5b34801561015c57600080fd5b5061017760048036038101906101729190612745565b61050a565b005b34801561018557600080fd5b5061018e61062a565b60405161019b919061278d565b60405180910390f35b3480156101b057600080fd5b506101b961063d565b6040516101c691906127b7565b60405180910390f35b3480156101db57600080fd5b506101f660048036038101906101f191906127f7565b610642565b005b610212600480360381019061020d9190612845565b6107e9565b005b34801561022057600080fd5b50610229610d3a565b60405161023691906128a7565b60405180910390f35b34801561024b57600080fd5b50610254610d40565b005b34801561026257600080fd5b5061026b610d7d565b60405161027891906128a7565b60405180910390f35b34801561028d57600080fd5b506102a860048036038101906102a391906128ee565b610d83565b005b3480156102b657600080fd5b506102d160048036038101906102cc9190612964565b610fd8565b6040516102de919061278d565b60405180910390f35b3480156102f357600080fd5b506102fc610ff8565b005b34801561030a57600080fd5b50610325600480360381019061032091906129bd565b6110de565b005b34801561033357600080fd5b5061033c611129565b005b34801561034a57600080fd5b50610365600480360381019061036091906129ea565b61113d565b60405161037291906128a7565b60405180910390f35b34801561038757600080fd5b50610390611155565b6040516103a39796959493929190612baf565b60405180910390f35b3480156103b857600080fd5b506103c1611267565b6040516103ce91906127b7565b60405180910390f35b3480156103e357600080fd5b506103ec61129f565b6040516103f99190612c92565b60405180910390f35b34801561040e57600080fd5b506104176112c5565b6040516104249190612cad565b60405180910390f35b34801561043957600080fd5b506104426112fe565b60405161044f91906128a7565b60405180910390f35b610472600480360381019061046d9190612845565b611304565b005b34801561048057600080fd5b5061049b600480360381019061049691906129ea565b6113f2565b005b3480156104a957600080fd5b506104b2611478565b6040516104bf9190612ccf565b60405180910390f35b3480156104d457600080fd5b506104dd61149c565b005b3480156104eb57600080fd5b506104f46114da565b6040516105019190612cad565b60405180910390f35b610512611513565b600073ffffffffffffffffffffffffffffffffffffffff168173ffffffffffffffffffffffffffffffffffffffff1603610581576040517f08c379a000000000000000000000000000000000000000000000000000000000815260040161057890612d36565b60405180910390fd5b80600160006101000a81548173ffffffffffffffffffffffffffffffffffffffff021916908373ffffffffffffffffffffffffffffffffffffffff160217905550600160009054906101000a900473ffffffffffffffffffffffffffffffffffffffff1673ffffffffffffffffffffffffffffffffffffffff167ff9a0f356a7ef079355de09d32ce45cc3cfabc8f118681c19a17501f005a376ac60405160405180910390a250565b600560009054906101000a900460ff1681565b600081565b80600001602081019061065591906129ea565b73ffffffffffffffffffffffffffffffffffffffff163373ffffffffffffffffffffffffffffffffffffffff16146106c2576040517f08c379a00000000000000000000000000000000000000000000000000000000081526004016106b990612da2565b60405180910390fd5b600061071f82600460008560000160208101906106df91906129ea565b73ffffffffffffffffffffffffffffffffffffffff1673ffffffffffffffffffffffffffffffffffffffff1681526020019081526020016000205461159a565b90506003600082815260200190815260200160002060009054906101000a900460ff1615610782576040517f08c379a000000000000000000000000000000000000000000000000000000000815260040161077990612e0e565b60405180910390fd5b60016003600083815260200190815260200160002060006101000a81548160ff0219169083151502179055507f5152abf959f6564662358c2e52b702259b78bac5ee7842a0f01937e670efcc7d816040516107dd9190612ccf565b60405180910390a15050565b600560009054906101000a900460ff16610838576040517f08c379a000000000000000000000000000000000000000000000000000000000815260040161082f90612e7a565b60405180910390fd5b610840611663565b60005a905060006108a8836000016004600086600001600001602081019061086891906129ea565b73ffffffffffffffffffffffffffffffffffffffff1673ffffffffffffffffffffffffffffffffffffffff1681526020019081526020016000205461159a565b905060006108f884600001600460003373ffffffffffffffffffffffffffffffffffffffff1673ffffffffffffffffffffffffffffffffffffffff1681526020019081526020016000205461159a565b905061090784600001836116ba565b610946576040517f08c379a000000000000000000000000000000000000000000000000000000000815260040161093d90612ee6565b60405180910390fd5b6109b984600001600001602081019061095f91906129ea565b858061016001906109709190612f15565b8080601f016020809104026020016040519081016040528093929190818152602001838380828437600081840152601f19601f820116905080830192505050505050508461174f565b6109f8576040517f08c379a00000000000000000000000000000000000000000000000000000000081526004016109ef90612fc4565b60405180910390fd5b610a563385806101400190610a0d9190612f15565b8080601f016020809104026020016040519081016040528093929190818152602001838380828437600081840152601f19601f820116905080830192505050505050508361174f565b610a95576040517f08c379a0000000000000000000000000000000000000000000000000000000008152600401610a8c90613030565b60405180910390fd5b60016003600084815260200190815260200160002060006101000a81548160ff021916908315150217905550610afe846000016000016020810190610ada91906129ea565b338660000160a0016020810190610af191906129ea565b8760000160c001356117b1565b610b59846000016040016020810190610b1791906129ea565b856000016000016020810190610b2d91906129ea565b3387600001606001358860000160800135896000016020016020810190610b549190613075565b6118c4565b60005a905060008185610b6c91906130d1565b9050600073ffffffffffffffffffffffffffffffffffffffff166340c10f19876000016000016020810190610ba191906129ea565b836040518363ffffffff1660e01b8152600401610bbf929190613105565b600060405180830381600087803b158015610bd957600080fd5b505af1158015610bed573d6000803e3d6000fd5b50505050600073ffffffffffffffffffffffffffffffffffffffff166340c10f1933836040518363ffffffff1660e01b8152600401610c2d929190613105565b600060405180830381600087803b158015610c4757600080fd5b505af1158015610c5b573d6000803e3d6000fd5b505050503373ffffffffffffffffffffffffffffffffffffffff167f2fe1b87f5337ddc8fb7572fb9b5d597a3b8a5a09c31f53e3911de7ae1dded85782604051610ca591906128a7565b60405180910390a23373ffffffffffffffffffffffffffffffffffffffff16866000016000016020810190610cda91906129ea565b73ffffffffffffffffffffffffffffffffffffffff167f6ec91138bdf5186e47a2c280eec5a74b532f50d0a3d40e10dd8dbc0961d425bb88600001604051610d229190613315565b60405180910390a35050505050610d37611a52565b50565b60065481565b610d48611513565b600080819055507f1cdde67b72a90f19919ac732a437ac2f7a10fc128d28c2a6e525d89ce5cd9d3a60405160405180910390a1565b60005481565b6000610d8d611a6b565b905060008160000160089054906101000a900460ff1615905060008260000160009054906101000a900467ffffffffffffffff1690506000808267ffffffffffffffff16148015610ddb5750825b9050600060018367ffffffffffffffff16148015610e10575060003073ffffffffffffffffffffffffffffffffffffffff163b145b905081158015610e1e575080155b15610e55576040517ff92ee8a900000000000000000000000000000000000000000000000000000000815260040160405180910390fd5b60018560000160006101000a81548167ffffffffffffffff021916908367ffffffffffffffff1602179055508315610ea55760018560000160086101000a81548160ff0219169083151502179055505b610eae87611a93565b610f226040518060400160405280601181526020017f53616979615065742045786368616e67650000000000000000000000000000008152506040518060400160405280600381526020017f312e300000000000000000000000000000000000000000000000000000000000815250611aa7565b600160008190555085600160006101000a81548173ffffffffffffffffffffffffffffffffffffffff021916908373ffffffffffffffffffffffffffffffffffffffff160217905550610f73611ab5565b8315610fcf5760008560000160086101000a81548160ff0219169083151502179055507fc7f505b2f371ae2175ee4913f4499e1f2633a7b5936321eed1cdaeb6115181d26001604051610fc69190613380565b60405180910390a15b50505050505050565b60036020528060005260406000206000915054906101000a900460ff1681565b6001600460003373ffffffffffffffffffffffffffffffffffffffff1673ffffffffffffffffffffffffffffffffffffffff1681526020019081526020016000206000828254611048919061339b565b925050819055503373ffffffffffffffffffffffffffffffffffffffff167fa82a649bbd060c9099cd7b7326e2b0dc9e9af0836480e0f849dc9eaa79710b3b600460003373ffffffffffffffffffffffffffffffffffffffff1673ffffffffffffffffffffffffffffffffffffffff168152602001908152602001600020546040516110d491906128a7565b60405180910390a2565b6110e6611513565b806002819055507f7706177c541ba1b858371bfc568aa77450b4713bbdbba62c730d4484ab6c125160025460405161111e91906128a7565b60405180910390a150565b611131611513565b61113b6000611ac7565b565b60046020528060005260406000206000915090505481565b600060608060008060006060600061116b611b9e565b90506000801b816000015414801561118957506000801b8160010154145b6111c8576040517f08c379a00000000000000000000000000000000000000000000000000000000081526004016111bf9061341b565b60405180910390fd5b6111d0611bc6565b6111d8611c67565b46306000801b600067ffffffffffffffff8111156111f9576111f861343b565b5b6040519080825280602002602001820160405280156112275781602001602082028036833780820191505090505b507f0f0000000000000000000000000000000000000000000000000000000000000095949392919097509750975097509750975097505090919293949596565b600080611272611d08565b90508060000160009054906101000a900473ffffffffffffffffffffffffffffffffffffffff1691505090565b600160009054906101000a900473ffffffffffffffffffffffffffffffffffffffff1681565b6040518060400160405280601181526020017f53616979615065742045786368616e676500000000000000000000000000000081525081565b60025481565b600160005414611349576040517f08c379a0000000000000000000000000000000000000000000000000000000008152600401611340906134b6565b60405180910390fd5b600560009054906101000a900460ff1615611399576040517f08c379a000000000000000000000000000000000000000000000000000000000815260040161139090612e7a565b60405180910390fd5b346006819055506001600560006101000a81548160ff0219169083151502179055506113c4816107e9565b6113cc611d30565b60006006819055506000600560006101000a81548160ff02191690831515021790555050565b6113fa611513565b600073ffffffffffffffffffffffffffffffffffffffff168173ffffffffffffffffffffffffffffffffffffffff160361146c5760006040517f1e4fbdf700000000000000000000000000000000000000000000000000000000815260040161146391906127b7565b60405180910390fd5b61147581611ac7565b50565b7faa19530725b3ceec0ae52c101f9affdf1aa0694a6a8e3cdd6013ab7449643e6f81565b6114a4611513565b60016000819055507fd1dcd00534373f20882b79e6ab6875a5c358c5bd576448757ed50e63069ab51860405160405180910390a1565b6040518060400160405280600381526020017f312e30000000000000000000000000000000000000000000000000000000000081525081565b61151b611d59565b73ffffffffffffffffffffffffffffffffffffffff16611539611267565b73ffffffffffffffffffffffffffffffffffffffff16146115985761155c611d59565b6040517f118cdaa700000000000000000000000000000000000000000000000000000000815260040161158f91906127b7565b60405180910390fd5b565b60007faa19530725b3ceec0ae52c101f9affdf1aa0694a6a8e3cdd6013ab7449643e6f8360000160208101906115d091906129ea565b8460200160208101906115e39190613075565b8560400160208101906115f691906129ea565b866060013587608001358860a001602081019061161391906129ea565b8960c001358a60e001358b61010001358c61012001358c6040516020016116459c9b9a999897969594939291906134e5565b60405160208183030381529060405280519060200120905092915050565b600061166d611d61565b905060028160000154036116ad576040517f3ee5aeb500000000000000000000000000000000000000000000000000000000815260040160405180910390fd5b6002816000018190555050565b60008073ffffffffffffffffffffffffffffffffffffffff168360000160208101906116e691906129ea565b73ffffffffffffffffffffffffffffffffffffffff161415801561172857506003600083815260200190815260200160002060009054906101000a900460ff16155b80156117375750428360e00135105b8015611747575082610100013542105b905092915050565b60003373ffffffffffffffffffffffffffffffffffffffff168473ffffffffffffffffffffffffffffffffffffffff160361178d57600190506117aa565b611798828585611d89565b6117a557600090506117aa565b600190505b9392505050565b600073ffffffffffffffffffffffffffffffffffffffff168273ffffffffffffffffffffffffffffffffffffffff16036118b2578273ffffffffffffffffffffffffffffffffffffffff163373ffffffffffffffffffffffffffffffffffffffff1614611853576040517f08c379a000000000000000000000000000000000000000000000000000000000815260040161184a906135eb565b60405180910390fd5b806006541015611898576040517f08c379a000000000000000000000000000000000000000000000000000000000815260040161188f90613657565b60405180910390fd5b80600660008282546118aa91906130d1565b925050819055505b6118be82848684611dac565b50505050565b600060018111156118d8576118d761316b565b5b8160018111156118eb576118ea61316b565b5b0361198857600160009054906101000a900473ffffffffffffffffffffffffffffffffffffffff1673ffffffffffffffffffffffffffffffffffffffff1663789f93f6878787876040518563ffffffff1660e01b81526004016119519493929190613677565b600060405180830381600087803b15801561196b57600080fd5b505af115801561197f573d6000803e3d6000fd5b50505050611a4a565b60018081111561199b5761199a61316b565b5b8160018111156119ae576119ad61316b565b5b03611a4957600160009054906101000a900473ffffffffffffffffffffffffffffffffffffffff1673ffffffffffffffffffffffffffffffffffffffff166374a9402e87878787876040518663ffffffff1660e01b8152600401611a169594939291906136bc565b600060405180830381600087803b158015611a3057600080fd5b505af1158015611a44573d6000803e3d6000fd5b505050505b5b505050505050565b6000611a5c611d61565b90506001816000018190555050565b60007ff0c57e16840df040f15088dc2f81fe391c3923bec73e23a9662efc9c229c6a00905090565b611a9b61201a565b611aa48161205a565b50565b611ab182826120e0565b5050565b611abd61201a565b611ac56120f6565b565b6000611ad1611d08565b905060008160000160009054906101000a900473ffffffffffffffffffffffffffffffffffffffff169050828260000160006101000a81548173ffffffffffffffffffffffffffffffffffffffff021916908373ffffffffffffffffffffffffffffffffffffffff1602179055508273ffffffffffffffffffffffffffffffffffffffff168173ffffffffffffffffffffffffffffffffffffffff167f8be0079c531659141344cd1fd0a4f28419497f9722a3daafe3b4186f6b6457e060405160405180910390a3505050565b60007fa16a46d94261c7517cc8ff89f61c0ce93598e3c849801011dee649a6a557d100905090565b60606000611bd2611b9e565b9050806002018054611be39061373e565b80601f0160208091040260200160405190810160405280929190818152602001828054611c0f9061373e565b8015611c5c5780601f10611c3157610100808354040283529160200191611c5c565b820191906000526020600020905b815481529060010190602001808311611c3f57829003601f168201915b505050505091505090565b60606000611c73611b9e565b9050806003018054611c849061373e565b80601f0160208091040260200160405190810160405280929190818152602001828054611cb09061373e565b8015611cfd5780601f10611cd257610100808354040283529160200191611cfd565b820191906000526020600020905b815481529060010190602001808311611ce057829003601f168201915b505050505091505090565b60007f9016d09d72d40fdae2fd8ceac6b6234c7706214fd39c1cd1e609a0528c199300905090565b600060065490506000811115611d565760008060008084335af180611d5457600080fd5b505b50565b600033905090565b60007f9b779b17422d0df92223018b32b4d1fa46e071723d6817e2486d003becc55f00905090565b600080611d9585612117565b9050611da2848285612129565b9150509392505050565b600081031561201457600073ffffffffffffffffffffffffffffffffffffffff168473ffffffffffffffffffffffffffffffffffffffff1603611f0a57600073ffffffffffffffffffffffffffffffffffffffff168273ffffffffffffffffffffffffffffffffffffffff1603611e58576040517f08c379a0000000000000000000000000000000000000000000000000000000008152600401611e4f906137bb565b60405180910390fd5b60008273ffffffffffffffffffffffffffffffffffffffff1682604051611e7e9061380c565b60006040518083038185875af1925050503d8060008114611ebb576040519150601f19603f3d011682016040523d82523d6000602084013e611ec0565b606091505b5050905080611f04576040517f08c379a0000000000000000000000000000000000000000000000000000000008152600401611efb9061386d565b60405180910390fd5b50612013565b600073ffffffffffffffffffffffffffffffffffffffff168473ffffffffffffffffffffffffffffffffffffffff1603611fd757600160009054906101000a900473ffffffffffffffffffffffffffffffffffffffff1673ffffffffffffffffffffffffffffffffffffffff1663da3e8ce460008585856040518563ffffffff1660e01b8152600401611fa09493929190613677565b600060405180830381600087803b158015611fba57600080fd5b505af1158015611fce573d6000803e3d6000fd5b50505050612012565b6040517f08c379a0000000000000000000000000000000000000000000000000000000008152600401612009906138d9565b60405180910390fd5b5b5b50505050565b6120226121b0565b612058576040517fd7e6bcf800000000000000000000000000000000000000000000000000000000815260040160405180910390fd5b565b61206261201a565b600073ffffffffffffffffffffffffffffffffffffffff168173ffffffffffffffffffffffffffffffffffffffff16036120d45760006040517f1e4fbdf70000000000000000000000000000000000000000000000000000000081526004016120cb91906127b7565b60405180910390fd5b6120dd81611ac7565b50565b6120e861201a565b6120f282826121d0565b5050565b6120fe61201a565b6000612108611d61565b90506001816000018190555050565b600061212282612225565b9050919050565b600080612136848461223f565b9050600073ffffffffffffffffffffffffffffffffffffffff168173ffffffffffffffffffffffffffffffffffffffff16036121765760009150506121a9565b8073ffffffffffffffffffffffffffffffffffffffff168573ffffffffffffffffffffffffffffffffffffffff16149150505b9392505050565b60006121ba611a6b565b60000160089054906101000a900460ff16905090565b6121d861201a565b60006121e2611b9e565b9050828160020190816121f59190613a9b565b50818160030190816122079190613a9b565b506000801b81600001819055506000801b8160010181905550505050565b600061223861223261226b565b8361227a565b9050919050565b60008060008061224f86866122bb565b92509250925061225f8282612317565b82935050505092915050565b600061227561247b565b905090565b60006040517f190100000000000000000000000000000000000000000000000000000000000081528360028201528260228201526042812091505092915050565b600080600060418451036123005760008060006020870151925060408701519150606087015160001a90506122f2888285856124df565b955095509550505050612310565b60006002855160001b9250925092505b9250925092565b6000600381111561232b5761232a61316b565b5b82600381111561233e5761233d61316b565b5b031561247757600160038111156123585761235761316b565b5b82600381111561236b5761236a61316b565b5b036123a2576040517ff645eedf00000000000000000000000000000000000000000000000000000000815260040160405180910390fd5b600260038111156123b6576123b561316b565b5b8260038111156123c9576123c861316b565b5b0361240e578060001c6040517ffce698f700000000000000000000000000000000000000000000000000000000815260040161240591906128a7565b60405180910390fd5b6003808111156124215761242061316b565b5b8260038111156124345761243361316b565b5b0361247657806040517fd78bce0c00000000000000000000000000000000000000000000000000000000815260040161246d9190612ccf565b60405180910390fd5b5b5050565b60007f8b73c3c69bb8fe3d512ecc4cf759cc79239f7b179b0ffacaa9a75d522b39400f6124a66125d3565b6124ae61264f565b46306040516020016124c4959493929190613b6d565b60405160208183030381529060405280519060200120905090565b60008060007f7fffffffffffffffffffffffffffffff5d576e7357a4501ddfe92f46681b20a08460001c111561251f5760006003859250925092506125c9565b6000600188888888604051600081526020016040526040516125449493929190613bdc565b6020604051602081039080840390855afa158015612566573d6000803e3d6000fd5b505050602060405103519050600073ffffffffffffffffffffffffffffffffffffffff168173ffffffffffffffffffffffffffffffffffffffff16036125ba57600060016000801b935093509350506125c9565b8060008060001b935093509350505b9450945094915050565b6000806125de611b9e565b905060006125ea611bc6565b90506000815111156126075780805190602001209250505061264c565b6000826000015490506000801b81146126255780935050505061264c565b7fc5d2460186f7233c927e7db2dcc703c0e500b653ca82273b7bfad8045d85a47093505050505b90565b60008061265a611b9e565b90506000612666611c67565b9050600081511115612683578080519060200120925050506126c8565b6000826001015490506000801b81146126a1578093505050506126c8565b7fc5d2460186f7233c927e7db2dcc703c0e500b653ca82273b7bfad8045d85a47093505050505b90565b600080fd5b600080fd5b600073ffffffffffffffffffffffffffffffffffffffff82169050919050565b6000612700826126d5565b9050919050565b6000612712826126f5565b9050919050565b61272281612707565b811461272d57600080fd5b50565b60008135905061273f81612719565b92915050565b60006020828403121561275b5761275a6126cb565b5b600061276984828501612730565b91505092915050565b60008115159050919050565b61278781612772565b82525050565b60006020820190506127a2600083018461277e565b92915050565b6127b1816126f5565b82525050565b60006020820190506127cc60008301846127a8565b92915050565b600080fd5b600061014082840312156127ee576127ed6127d2565b5b81905092915050565b6000610140828403121561280e5761280d6126cb565b5b600061281c848285016127d7565b91505092915050565b6000610180828403121561283c5761283b6127d2565b5b81905092915050565b60006020828403121561285b5761285a6126cb565b5b600082013567ffffffffffffffff811115612879576128786126d0565b5b61288584828501612825565b91505092915050565b6000819050919050565b6128a18161288e565b82525050565b60006020820190506128bc6000830184612898565b92915050565b6128cb816126f5565b81146128d657600080fd5b50565b6000813590506128e8816128c2565b92915050565b60008060408385031215612905576129046126cb565b5b6000612913858286016128d9565b925050602061292485828601612730565b9150509250929050565b6000819050919050565b6129418161292e565b811461294c57600080fd5b50565b60008135905061295e81612938565b92915050565b60006020828403121561297a576129796126cb565b5b60006129888482850161294f565b91505092915050565b61299a8161288e565b81146129a557600080fd5b50565b6000813590506129b781612991565b92915050565b6000602082840312156129d3576129d26126cb565b5b60006129e1848285016129a8565b91505092915050565b600060208284031215612a00576129ff6126cb565b5b6000612a0e848285016128d9565b91505092915050565b60007fff0000000000000000000000000000000000000000000000000000000000000082169050919050565b612a4c81612a17565b82525050565b600081519050919050565b600082825260208201905092915050565b60005b83811015612a8c578082015181840152602081019050612a71565b60008484015250505050565b6000601f19601f8301169050919050565b6000612ab482612a52565b612abe8185612a5d565b9350612ace818560208601612a6e565b612ad781612a98565b840191505092915050565b612aeb8161292e565b82525050565b600081519050919050565b600082825260208201905092915050565b6000819050602082019050919050565b612b268161288e565b82525050565b6000612b388383612b1d565b60208301905092915050565b6000602082019050919050565b6000612b5c82612af1565b612b668185612afc565b9350612b7183612b0d565b8060005b83811015612ba2578151612b898882612b2c565b9750612b9483612b44565b925050600181019050612b75565b5085935050505092915050565b600060e082019050612bc4600083018a612a43565b8181036020830152612bd68189612aa9565b90508181036040830152612bea8188612aa9565b9050612bf96060830187612898565b612c0660808301866127a8565b612c1360a0830185612ae2565b81810360c0830152612c258184612b51565b905098975050505050505050565b6000819050919050565b6000612c58612c53612c4e846126d5565b612c33565b6126d5565b9050919050565b6000612c6a82612c3d565b9050919050565b6000612c7c82612c5f565b9050919050565b612c8c81612c71565b82525050565b6000602082019050612ca76000830184612c83565b92915050565b60006020820190508181036000830152612cc78184612aa9565b905092915050565b6000602082019050612ce46000830184612ae2565b92915050565b7f416464726573732063616e6e6f74206265207a65726f00000000000000000000600082015250565b6000612d20601683612a5d565b9150612d2b82612cea565b602082019050919050565b60006020820190508181036000830152612d4f81612d13565b9050919050565b7f4e6f742073656e742062792073656c6c65720000000000000000000000000000600082015250565b6000612d8c601283612a5d565b9150612d9782612d56565b602082019050919050565b60006020820190508181036000830152612dbb81612d7f565b9050919050565b7f4f726465722063616e63656c6c6564206f722066696c6c656400000000000000600082015250565b6000612df8601983612a5d565b9150612e0382612dc2565b602082019050919050565b60006020820190508181036000830152612e2781612deb565b9050919050565b7f556e736166652063616c6c000000000000000000000000000000000000000000600082015250565b6000612e64600b83612a5d565b9150612e6f82612e2e565b602082019050919050565b60006020820190508181036000830152612e9381612e57565b9050919050565b7f53656c6c2068617320696e76616c696420706172616d65746572730000000000600082015250565b6000612ed0601b83612a5d565b9150612edb82612e9a565b602082019050919050565b60006020820190508181036000830152612eff81612ec3565b9050919050565b600080fd5b600080fd5b600080fd5b60008083356001602003843603038112612f3257612f31612f06565b5b80840192508235915067ffffffffffffffff821115612f5457612f53612f0b565b5b602083019250600182023603831315612f7057612f6f612f10565b5b509250929050565b7f53656c6c206661696c656420617574686f72697a6174696f6e00000000000000600082015250565b6000612fae601983612a5d565b9150612fb982612f78565b602082019050919050565b60006020820190508181036000830152612fdd81612fa1565b9050919050565b7f427579206661696c656420617574686f72697a6174696f6e0000000000000000600082015250565b600061301a601883612a5d565b915061302582612fe4565b602082019050919050565b600060208201905081810360008301526130498161300d565b9050919050565b6002811061305d57600080fd5b50565b60008135905061306f81613050565b92915050565b60006020828403121561308b5761308a6126cb565b5b600061309984828501613060565b91505092915050565b7f4e487b7100000000000000000000000000000000000000000000000000000000600052601160045260246000fd5b60006130dc8261288e565b91506130e78361288e565b92508282039050818111156130ff576130fe6130a2565b5b92915050565b600060408201905061311a60008301856127a8565b6131276020830184612898565b9392505050565b600061313d60208401846128d9565b905092915050565b61314e816126f5565b82525050565b60006131636020840184613060565b905092915050565b7f4e487b7100000000000000000000000000000000000000000000000000000000600052602160045260246000fd5b600281106131ab576131aa61316b565b5b50565b60008190506131bc8261319a565b919050565b60006131cc826131ae565b9050919050565b6131dc816131c1565b82525050565b60006131f160208401846129a8565b905092915050565b610140820161320b600083018361312e565b6132186000850182613145565b506132266020830183613154565b61323360208501826131d3565b50613241604083018361312e565b61324e6040850182613145565b5061325c60608301836131e2565b6132696060850182612b1d565b5061327760808301836131e2565b6132846080850182612b1d565b5061329260a083018361312e565b61329f60a0850182613145565b506132ad60c08301836131e2565b6132ba60c0850182612b1d565b506132c860e08301836131e2565b6132d560e0850182612b1d565b506132e46101008301836131e2565b6132f2610100850182612b1d565b506133016101208301836131e2565b61330f610120850182612b1d565b50505050565b60006101408201905061332b60008301846131f9565b92915050565b6000819050919050565b600067ffffffffffffffff82169050919050565b600061336a61336561336084613331565b612c33565b61333b565b9050919050565b61337a8161334f565b82525050565b60006020820190506133956000830184613371565b92915050565b60006133a68261288e565b91506133b18361288e565b92508282019050808211156133c9576133c86130a2565b5b92915050565b7f4549503731323a20556e696e697469616c697a65640000000000000000000000600082015250565b6000613405601583612a5d565b9150613410826133cf565b602082019050919050565b60006020820190508181036000830152613434816133f8565b9050919050565b7f4e487b7100000000000000000000000000000000000000000000000000000000600052604160045260246000fd5b7f436c6f7365640000000000000000000000000000000000000000000000000000600082015250565b60006134a0600683612a5d565b91506134ab8261346a565b602082019050919050565b600060208201905081810360008301526134cf81613493565b9050919050565b6134df816131c1565b82525050565b6000610180820190506134fb600083018f612ae2565b613508602083018e6127a8565b613515604083018d6134d6565b613522606083018c6127a8565b61352f608083018b612898565b61353c60a083018a612898565b61354960c08301896127a8565b61355660e0830188612898565b613564610100830187612898565b613572610120830186612898565b613580610140830185612898565b61358e610160830184612898565b9d9c50505050505050505050505050565b7f43616e6e6f742075736520455448000000000000000000000000000000000000600082015250565b60006135d5600e83612a5d565b91506135e08261359f565b602082019050919050565b60006020820190508181036000830152613604816135c8565b9050919050565b7f496e73756666696369656e742076616c75650000000000000000000000000000600082015250565b6000613641601283612a5d565b915061364c8261360b565b602082019050919050565b6000602082019050818103600083015261367081613634565b9050919050565b600060808201905061368c60008301876127a8565b61369960208301866127a8565b6136a660408301856127a8565b6136b36060830184612898565b95945050505050565b600060a0820190506136d160008301886127a8565b6136de60208301876127a8565b6136eb60408301866127a8565b6136f86060830185612898565b6137056080830184612898565b9695505050505050565b7f4e487b7100000000000000000000000000000000000000000000000000000000600052602260045260246000fd5b6000600282049050600182168061375657607f821691505b6020821081036137695761376861370f565b5b50919050565b7f5472616e7366657220746f207a65726f20616464726573730000000000000000600082015250565b60006137a5601883612a5d565b91506137b08261376f565b602082019050919050565b600060208201905081810360008301526137d481613798565b9050919050565b600081905092915050565b50565b60006137f66000836137db565b9150613801826137e6565b600082019050919050565b6000613817826137e9565b9150819050919050565b7f455448207472616e73666572206661696c656400000000000000000000000000600082015250565b6000613857601383612a5d565b915061386282613821565b602082019050919050565b600060208201905081810360008301526138868161384a565b9050919050565b7f496e76616c6964207061796d656e7420746f6b656e0000000000000000000000600082015250565b60006138c3601583612a5d565b91506138ce8261388d565b602082019050919050565b600060208201905081810360008301526138f2816138b6565b9050919050565b60008190508160005260206000209050919050565b60006020601f8301049050919050565b600082821b905092915050565b60006008830261395b7fffffffffffffffffffffffffffffffffffffffffffffffffffffffffffffffff8261391e565b613965868361391e565b95508019841693508086168417925050509392505050565b600061399861399361398e8461288e565b612c33565b61288e565b9050919050565b6000819050919050565b6139b28361397d565b6139c66139be8261399f565b84845461392b565b825550505050565b600090565b6139db6139ce565b6139e68184846139a9565b505050565b5b81811015613a0a576139ff6000826139d3565b6001810190506139ec565b5050565b601f821115613a4f57613a20816138f9565b613a298461390e565b81016020851015613a38578190505b613a4c613a448561390e565b8301826139eb565b50505b505050565b600082821c905092915050565b6000613a7260001984600802613a54565b1980831691505092915050565b6000613a8b8383613a61565b9150826002028217905092915050565b613aa482612a52565b67ffffffffffffffff811115613abd57613abc61343b565b5b613ac7825461373e565b613ad2828285613a0e565b600060209050601f831160018114613b055760008415613af3578287015190505b613afd8582613a7f565b865550613b65565b601f198416613b13866138f9565b60005b82811015613b3b57848901518255600182019150602085019450602081019050613b16565b86831015613b585784890151613b54601f891682613a61565b8355505b6001600288020188555050505b505050505050565b600060a082019050613b826000830188612ae2565b613b8f6020830187612ae2565b613b9c6040830186612ae2565b613ba96060830185612898565b613bb660808301846127a8565b9695505050505050565b600060ff82169050919050565b613bd681613bc0565b82525050565b6000608082019050613bf16000830187612ae2565b613bfe6020830186613bcd565b613c0b6040830185612ae2565b613c186060830184612ae2565b9594505050505056fea26469706673582212206f776fa8696e473b2fb59a1924f88191b4fd825425861c8c8f7b72f427bf5f3864736f6c63430008140033",
  "devdoc": {
    "details": "Core exchange contract",
    "errors": {
      "ECDSAInvalidSignature()": [
        {
          "details": "The signature derives the `address(0)`."
        }
      ],
      "ECDSAInvalidSignatureLength(uint256)": [
        {
          "details": "The signature has an invalid length."
        }
      ],
      "ECDSAInvalidSignatureS(bytes32)": [
        {
          "details": "The signature has an S value that is in the upper half order."
        }
      ],
      "InvalidInitialization()": [
        {
          "details": "The contract is already initialized."
        }
      ],
      "NotInitializing()": [
        {
          "details": "The contract is not initializing."
        }
      ],
      "OwnableInvalidOwner(address)": [
        {
          "details": "The owner is not a valid owner account. (eg. `address(0)`)"
        }
      ],
      "OwnableUnauthorizedAccount(address)": [
        {
          "details": "The caller account is not authorized to perform an operation."
        }
      ],
      "ReentrancyGuardReentrantCall()": [
        {
          "details": "Unauthorized reentrant call."
        }
      ]
    },
    "events": {
      "EIP712DomainChanged()": {
        "details": "MAY be emitted to signal that the domain could have changed."
      },
      "Initialized(uint64)": {
        "details": "Triggered when the contract has been initialized or reinitialized."
      }
    },
    "kind": "dev",
    "methods": {
      "_execute(((address,uint8,address,uint256,uint256,address,uint256,uint256,uint256,uint256),bytes,bytes))": {
        "details": "Match two orders, ensuring validity of the match, and execute all associated state transitions. Must be called internally."
      },
      "cancelOrder((address,uint8,address,uint256,uint256,address,uint256,uint256,uint256,uint256))": {
        "details": "Cancel an order, preventing it from being matched. Must be called by the trader of the order",
        "params": {
          "order": "Order to cancel"
        }
      },
      "eip712Domain()": {
        "details": "See {IERC-5267}."
      },
      "execute(((address,uint8,address,uint256,uint256,address,uint256,uint256,uint256,uint256),bytes,bytes))": {
        "details": "_execute wrapper"
      },
      "incrementNonce()": {
        "details": "Cancel all current orders for a user, preventing them from being matched. Must be called by the trader of the order"
      },
      "owner()": {
        "details": "Returns the address of the current owner."
      },
      "renounceOwnership()": {
        "details": "Leaves the contract without owner. It will not be possible to call `onlyOwner` functions. Can only be called by the current owner. NOTE: Renouncing ownership will leave the contract without an owner, thereby disabling any functionality that is only available to the owner."
      },
      "transferOwnership(address)": {
        "details": "Transfers ownership of the contract to a new account (`newOwner`). Can only be called by the current owner."
      }
    },
    "title": "Exchange",
    "version": 1
  },
  "userdoc": {
    "kind": "user",
    "methods": {},
    "version": 1
  },
  "storageLayout": {
    "storage": [
      {
        "astId": 7288,
        "contract": "contracts/Exchange.sol:Exchange",
        "label": "isOpen",
        "offset": 0,
        "slot": "0",
        "type": "t_uint256"
      },
      {
        "astId": 7380,
        "contract": "contracts/Exchange.sol:Exchange",
        "label": "executionDelegate",
        "offset": 0,
        "slot": "1",
        "type": "t_contract(IExecutionDelegate)8147"
      },
      {
        "astId": 7382,
        "contract": "contracts/Exchange.sol:Exchange",
        "label": "blockRange",
        "offset": 0,
        "slot": "2",
        "type": "t_uint256"
      },
      {
        "astId": 7386,
        "contract": "contracts/Exchange.sol:Exchange",
        "label": "cancelledOrFilled",
        "offset": 0,
        "slot": "3",
        "type": "t_mapping(t_bytes32,t_bool)"
      },
      {
        "astId": 7390,
        "contract": "contracts/Exchange.sol:Exchange",
        "label": "nonces",
        "offset": 0,
        "slot": "4",
        "type": "t_mapping(t_address,t_uint256)"
      },
      {
        "astId": 7393,
        "contract": "contracts/Exchange.sol:Exchange",
        "label": "isInternal",
        "offset": 0,
        "slot": "5",
        "type": "t_bool"
      },
      {
        "astId": 7396,
        "contract": "contracts/Exchange.sol:Exchange",
        "label": "remainingETH",
        "offset": 0,
        "slot": "6",
        "type": "t_uint256"
      }
    ],
    "types": {
      "t_address": {
        "encoding": "inplace",
        "label": "address",
        "numberOfBytes": "20"
      },
      "t_bool": {
        "encoding": "inplace",
        "label": "bool",
        "numberOfBytes": "1"
      },
      "t_bytes32": {
        "encoding": "inplace",
        "label": "bytes32",
        "numberOfBytes": "32"
      },
      "t_contract(IExecutionDelegate)8147": {
        "encoding": "inplace",
        "label": "contract IExecutionDelegate",
        "numberOfBytes": "20"
      },
      "t_mapping(t_address,t_uint256)": {
        "encoding": "mapping",
        "key": "t_address",
        "label": "mapping(address => uint256)",
        "numberOfBytes": "32",
        "value": "t_uint256"
      },
      "t_mapping(t_bytes32,t_bool)": {
        "encoding": "mapping",
        "key": "t_bytes32",
        "label": "mapping(bytes32 => bool)",
        "numberOfBytes": "32",
        "value": "t_bool"
      },
      "t_uint256": {
        "encoding": "inplace",
        "label": "uint256",
        "numberOfBytes": "32"
      }
    }
  }
}