{
  "address": "0xD3cB171A68aAbcf8578A071479Cf4b1F6479927e",
  "abi": [
    {
      "inputs": [
        {
          "internalType": "address",
          "name": "_owner",
          "type": "address"
        }
      ],
      "stateMutability": "nonpayable",
      "type": "constructor"
    },
    {
      "inputs": [
        {
          "internalType": "address",
          "name": "target",
          "type": "address"
        }
      ],
      "name": "AddressEmptyCode",
      "type": "error"
    },
    {
      "inputs": [
        {
          "internalType": "address",
          "name": "account",
          "type": "address"
        }
      ],
      "name": "AddressInsufficientBalance",
      "type": "error"
    },
    {
      "inputs": [],
      "name": "FailedInnerCall",
      "type": "error"
    },
    {
      "inputs": [
        {
          "internalType": "address",
          "name": "owner",
          "type": "address"
        }
      ],
      "name": "OwnableInvalidOwner",
      "type": "error"
    },
    {
      "inputs": [
        {
          "internalType": "address",
          "name": "account",
          "type": "address"
        }
      ],
      "name": "OwnableUnauthorizedAccount",
      "type": "error"
    },
    {
      "anonymous": false,
      "inputs": [
        {
          "indexed": true,
          "internalType": "address",
          "name": "_contract",
          "type": "address"
        }
      ],
      "name": "ApproveContract",
      "type": "event"
    },
    {
      "anonymous": false,
      "inputs": [
        {
          "indexed": true,
          "internalType": "address",
          "name": "_contract",
          "type": "address"
        }
      ],
      "name": "DenyContract",
      "type": "event"
    },
    {
      "anonymous": false,
      "inputs": [
        {
          "indexed": true,
          "internalType": "address",
          "name": "user",
          "type": "address"
        }
      ],
      "name": "GrantApproval",
      "type": "event"
    },
    {
      "anonymous": false,
      "inputs": [
        {
          "indexed": true,
          "internalType": "address",
          "name": "previousOwner",
          "type": "address"
        },
        {
          "indexed": true,
          "internalType": "address",
          "name": "newOwner",
          "type": "address"
        }
      ],
      "name": "OwnershipTransferred",
      "type": "event"
    },
    {
      "anonymous": false,
      "inputs": [
        {
          "indexed": true,
          "internalType": "address",
          "name": "user",
          "type": "address"
        }
      ],
      "name": "RevokeApproval",
      "type": "event"
    },
    {
      "inputs": [
        {
          "internalType": "address",
          "name": "_contract",
          "type": "address"
        }
      ],
      "name": "approveContract",
      "outputs": [],
      "stateMutability": "nonpayable",
      "type": "function"
    },
    {
      "inputs": [
        {
          "internalType": "address",
          "name": "",
          "type": "address"
        }
      ],
      "name": "contracts",
      "outputs": [
        {
          "internalType": "bool",
          "name": "",
          "type": "bool"
        }
      ],
      "stateMutability": "view",
      "type": "function"
    },
    {
      "inputs": [
        {
          "internalType": "address",
          "name": "_contract",
          "type": "address"
        }
      ],
      "name": "denyContract",
      "outputs": [],
      "stateMutability": "nonpayable",
      "type": "function"
    },
    {
      "inputs": [],
      "name": "grantApproval",
      "outputs": [],
      "stateMutability": "nonpayable",
      "type": "function"
    },
    {
      "inputs": [],
      "name": "owner",
      "outputs": [
        {
          "internalType": "address",
          "name": "",
          "type": "address"
        }
      ],
      "stateMutability": "view",
      "type": "function"
    },
    {
      "inputs": [],
      "name": "renounceOwnership",
      "outputs": [],
      "stateMutability": "nonpayable",
      "type": "function"
    },
    {
      "inputs": [],
      "name": "revokeApproval",
      "outputs": [],
      "stateMutability": "nonpayable",
      "type": "function"
    },
    {
      "inputs": [
        {
          "internalType": "address",
          "name": "",
          "type": "address"
        }
      ],
      "name": "revokedApproval",
      "outputs": [
        {
          "internalType": "bool",
          "name": "",
          "type": "bool"
        }
      ],
      "stateMutability": "view",
      "type": "function"
    },
    {
      "inputs": [
        {
          "internalType": "address",
          "name": "collection",
          "type": "address"
        },
        {
          "internalType": "address",
          "name": "from",
          "type": "address"
        },
        {
          "internalType": "address",
          "name": "to",
          "type": "address"
        },
        {
          "internalType": "uint256",
          "name": "tokenId",
          "type": "uint256"
        },
        {
          "internalType": "uint256",
          "name": "amount",
          "type": "uint256"
        }
      ],
      "name": "transferERC1155",
      "outputs": [],
      "stateMutability": "nonpayable",
      "type": "function"
    },
    {
      "inputs": [
        {
          "internalType": "address",
          "name": "token",
          "type": "address"
        },
        {
          "internalType": "address",
          "name": "from",
          "type": "address"
        },
        {
          "internalType": "address",
          "name": "to",
          "type": "address"
        },
        {
          "internalType": "uint256",
          "name": "amount",
          "type": "uint256"
        }
      ],
      "name": "transferERC20",
      "outputs": [],
      "stateMutability": "nonpayable",
      "type": "function"
    },
    {
      "inputs": [
        {
          "internalType": "address",
          "name": "collection",
          "type": "address"
        },
        {
          "internalType": "address",
          "name": "from",
          "type": "address"
        },
        {
          "internalType": "address",
          "name": "to",
          "type": "address"
        },
        {
          "internalType": "uint256",
          "name": "tokenId",
          "type": "uint256"
        }
      ],
      "name": "transferERC721",
      "outputs": [],
      "stateMutability": "nonpayable",
      "type": "function"
    },
    {
      "inputs": [
        {
          "internalType": "address",
          "name": "collection",
          "type": "address"
        },
        {
          "internalType": "address",
          "name": "from",
          "type": "address"
        },
        {
          "internalType": "address",
          "name": "to",
          "type": "address"
        },
        {
          "internalType": "uint256",
          "name": "tokenId",
          "type": "uint256"
        }
      ],
      "name": "transferERC721Unsafe",
      "outputs": [],
      "stateMutability": "nonpayable",
      "type": "function"
    },
    {
      "inputs": [
        {
          "internalType": "address",
          "name": "newOwner",
          "type": "address"
        }
      ],
      "name": "transferOwnership",
      "outputs": [],
      "stateMutability": "nonpayable",
      "type": "function"
    }
  ],
  "transactionHash": "0xecf2afd43e54249930e2758e6c542ac162b878a843c4cdf9574424df1421c484",
  "args": [
    "0x3ED057fC73d36894Cf6d15538c026B22e1277def"
  ],
  "numDeployments": 1,
  "solcInputHash": "07af06fba2fa04d474ad023ff21730db",
  "bytecode": "0x60806040523480156200001157600080fd5b5060405162001788380380620017888339818101604052810190620000379190620001f4565b80600073ffffffffffffffffffffffffffffffffffffffff168173ffffffffffffffffffffffffffffffffffffffff1603620000ad5760006040517f1e4fbdf7000000000000000000000000000000000000000000000000000000008152600401620000a4919062000237565b60405180910390fd5b620000be81620000c660201b60201c565b505062000254565b60008060009054906101000a900473ffffffffffffffffffffffffffffffffffffffff169050816000806101000a81548173ffffffffffffffffffffffffffffffffffffffff021916908373ffffffffffffffffffffffffffffffffffffffff1602179055508173ffffffffffffffffffffffffffffffffffffffff168173ffffffffffffffffffffffffffffffffffffffff167f8be0079c531659141344cd1fd0a4f28419497f9722a3daafe3b4186f6b6457e060405160405180910390a35050565b600080fd5b600073ffffffffffffffffffffffffffffffffffffffff82169050919050565b6000620001bc826200018f565b9050919050565b620001ce81620001af565b8114620001da57600080fd5b50565b600081519050620001ee81620001c3565b92915050565b6000602082840312156200020d576200020c6200018a565b5b60006200021d84828501620001dd565b91505092915050565b6200023181620001af565b82525050565b60006020820190506200024e600083018462000226565b92915050565b61152480620002646000396000f3fe608060405234801561001057600080fd5b50600436106100cf5760003560e01c80638da5cb5b1161008c578063b7e2077e11610066578063b7e2077e146101c4578063ca72da8e146101e0578063da3e8ce4146101fc578063f2fde38b14610218576100cf565b80638da5cb5b1461019257806390d02b3c146101b0578063a8034df1146101ba576100cf565b806307f7aafb146100d45780634a3e3a1f146100f057806369dc9ff314610120578063715018a61461015057806374a9402e1461015a578063789f93f614610176575b600080fd5b6100ee60048036038101906100e99190611018565b610234565b005b61010a60048036038101906101059190611018565b6102d9565b6040516101179190611060565b60405180910390f35b61013a60048036038101906101359190611018565b6102f9565b6040516101479190611060565b60405180910390f35b610158610319565b005b610174600480360381019061016f91906110b1565b61032d565b005b610190600480360381019061018b919061112c565b6104c4565b005b61019a610658565b6040516101a791906111a2565b60405180910390f35b6101b8610681565b005b6101c261071e565b005b6101de60048036038101906101d99190611018565b6107bb565b005b6101fa60048036038101906101f5919061112c565b610861565b005b6102166004803603810190610211919061112c565b6109f5565b005b610232600480360381019061022d9190611018565b610c25565b005b61023c610cab565b60018060008373ffffffffffffffffffffffffffffffffffffffff1673ffffffffffffffffffffffffffffffffffffffff16815260200190815260200160002060006101000a81548160ff0219169083151502179055508073ffffffffffffffffffffffffffffffffffffffff167f283ffe02a14663588cf87ba17adbc21c9ce0d0cdb15655926bf2b987af3075fe60405160405180910390a250565b60026020528060005260406000206000915054906101000a900460ff1681565b60016020528060005260406000206000915054906101000a900460ff1681565b610321610cab565b61032b6000610d32565b565b600160003373ffffffffffffffffffffffffffffffffffffffff1673ffffffffffffffffffffffffffffffffffffffff16815260200190815260200160002060009054906101000a900460ff166103b9576040517f08c379a00000000000000000000000000000000000000000000000000000000081526004016103b090611240565b60405180910390fd5b60001515600260008673ffffffffffffffffffffffffffffffffffffffff1673ffffffffffffffffffffffffffffffffffffffff16815260200190815260200160002060009054906101000a900460ff1615151461044c576040517f08c379a0000000000000000000000000000000000000000000000000000000008152600401610443906112ac565b60405180910390fd5b8473ffffffffffffffffffffffffffffffffffffffff1663f242432a858585856040518563ffffffff1660e01b815260040161048b9493929190611312565b600060405180830381600087803b1580156104a557600080fd5b505af11580156104b9573d6000803e3d6000fd5b505050505050505050565b600160003373ffffffffffffffffffffffffffffffffffffffff1673ffffffffffffffffffffffffffffffffffffffff16815260200190815260200160002060009054906101000a900460ff16610550576040517f08c379a000000000000000000000000000000000000000000000000000000000815260040161054790611240565b60405180910390fd5b60001515600260008573ffffffffffffffffffffffffffffffffffffffff1673ffffffffffffffffffffffffffffffffffffffff16815260200190815260200160002060009054906101000a900460ff161515146105e3576040517f08c379a00000000000000000000000000000000000000000000000000000000081526004016105da906112ac565b60405180910390fd5b8373ffffffffffffffffffffffffffffffffffffffff166342842e0e8484846040518463ffffffff1660e01b81526004016106209392919061136a565b600060405180830381600087803b15801561063a57600080fd5b505af115801561064e573d6000803e3d6000fd5b5050505050505050565b60008060009054906101000a900473ffffffffffffffffffffffffffffffffffffffff16905090565b6001600260003373ffffffffffffffffffffffffffffffffffffffff1673ffffffffffffffffffffffffffffffffffffffff16815260200190815260200160002060006101000a81548160ff0219169083151502179055503373ffffffffffffffffffffffffffffffffffffffff167fdddeac663983b1e35153215a4578fecbb5921d12e660b3c4259aa7d9dbb9709f60405160405180910390a2565b6000600260003373ffffffffffffffffffffffffffffffffffffffff1673ffffffffffffffffffffffffffffffffffffffff16815260200190815260200160002060006101000a81548160ff0219169083151502179055503373ffffffffffffffffffffffffffffffffffffffff167f120d91a0121c2d5a7ce9638fce4bd262d4b443568fce40f681f50dca814a629a60405160405180910390a2565b6107c3610cab565b6000600160008373ffffffffffffffffffffffffffffffffffffffff1673ffffffffffffffffffffffffffffffffffffffff16815260200190815260200160002060006101000a81548160ff0219169083151502179055508073ffffffffffffffffffffffffffffffffffffffff167f2b35b0a030b4f4cef0a9e8d01828235bb82a11ec4e37c11bd6d8770d9aafb17c60405160405180910390a250565b600160003373ffffffffffffffffffffffffffffffffffffffff1673ffffffffffffffffffffffffffffffffffffffff16815260200190815260200160002060009054906101000a900460ff166108ed576040517f08c379a00000000000000000000000000000000000000000000000000000000081526004016108e490611240565b60405180910390fd5b60001515600260008573ffffffffffffffffffffffffffffffffffffffff1673ffffffffffffffffffffffffffffffffffffffff16815260200190815260200160002060009054906101000a900460ff16151514610980576040517f08c379a0000000000000000000000000000000000000000000000000000000008152600401610977906112ac565b60405180910390fd5b8373ffffffffffffffffffffffffffffffffffffffff166323b872dd8484846040518463ffffffff1660e01b81526004016109bd9392919061136a565b600060405180830381600087803b1580156109d757600080fd5b505af11580156109eb573d6000803e3d6000fd5b5050505050505050565b600160003373ffffffffffffffffffffffffffffffffffffffff1673ffffffffffffffffffffffffffffffffffffffff16815260200190815260200160002060009054906101000a900460ff16610a81576040517f08c379a0000000000000000000000000000000000000000000000000000000008152600401610a7890611240565b60405180910390fd5b60001515600260008573ffffffffffffffffffffffffffffffffffffffff1673ffffffffffffffffffffffffffffffffffffffff16815260200190815260200160002060009054906101000a900460ff16151514610b14576040517f08c379a0000000000000000000000000000000000000000000000000000000008152600401610b0b906112ac565b60405180910390fd5b60006323b872dd60e01b848484604051602401610b339392919061136a565b604051602081830303815290604052907bffffffffffffffffffffffffffffffffffffffffffffffffffffffff19166020820180517bffffffffffffffffffffffffffffffffffffffffffffffffffffffff838183161783525050505090506000610bbd828773ffffffffffffffffffffffffffffffffffffffff16610df690919063ffffffff16565b9050600081511115610c1d5780806020019051810190610bdd91906113cd565b610c1c576040517f08c379a0000000000000000000000000000000000000000000000000000000008152600401610c1390611446565b60405180910390fd5b5b505050505050565b610c2d610cab565b600073ffffffffffffffffffffffffffffffffffffffff168173ffffffffffffffffffffffffffffffffffffffff1603610c9f5760006040517f1e4fbdf7000000000000000000000000000000000000000000000000000000008152600401610c9691906111a2565b60405180910390fd5b610ca881610d32565b50565b610cb3610e0c565b73ffffffffffffffffffffffffffffffffffffffff16610cd1610658565b73ffffffffffffffffffffffffffffffffffffffff1614610d3057610cf4610e0c565b6040517f118cdaa7000000000000000000000000000000000000000000000000000000008152600401610d2791906111a2565b60405180910390fd5b565b60008060009054906101000a900473ffffffffffffffffffffffffffffffffffffffff169050816000806101000a81548173ffffffffffffffffffffffffffffffffffffffff021916908373ffffffffffffffffffffffffffffffffffffffff1602179055508173ffffffffffffffffffffffffffffffffffffffff168173ffffffffffffffffffffffffffffffffffffffff167f8be0079c531659141344cd1fd0a4f28419497f9722a3daafe3b4186f6b6457e060405160405180910390a35050565b6060610e0483836000610e14565b905092915050565b600033905090565b606081471015610e5b57306040517fcd786059000000000000000000000000000000000000000000000000000000008152600401610e5291906111a2565b60405180910390fd5b6000808573ffffffffffffffffffffffffffffffffffffffff168486604051610e8491906114d7565b60006040518083038185875af1925050503d8060008114610ec1576040519150601f19603f3d011682016040523d82523d6000602084013e610ec6565b606091505b5091509150610ed6868383610ee1565b925050509392505050565b606082610ef657610ef182610f70565b610f68565b60008251148015610f1e575060008473ffffffffffffffffffffffffffffffffffffffff163b145b15610f6057836040517f9996b315000000000000000000000000000000000000000000000000000000008152600401610f5791906111a2565b60405180910390fd5b819050610f69565b5b9392505050565b600081511115610f835780518082602001fd5b6040517f1425ea4200000000000000000000000000000000000000000000000000000000815260040160405180910390fd5b600080fd5b600073ffffffffffffffffffffffffffffffffffffffff82169050919050565b6000610fe582610fba565b9050919050565b610ff581610fda565b811461100057600080fd5b50565b60008135905061101281610fec565b92915050565b60006020828403121561102e5761102d610fb5565b5b600061103c84828501611003565b91505092915050565b60008115159050919050565b61105a81611045565b82525050565b60006020820190506110756000830184611051565b92915050565b6000819050919050565b61108e8161107b565b811461109957600080fd5b50565b6000813590506110ab81611085565b92915050565b600080600080600060a086880312156110cd576110cc610fb5565b5b60006110db88828901611003565b95505060206110ec88828901611003565b94505060406110fd88828901611003565b935050606061110e8882890161109c565b925050608061111f8882890161109c565b9150509295509295909350565b6000806000806080858703121561114657611145610fb5565b5b600061115487828801611003565b945050602061116587828801611003565b935050604061117687828801611003565b92505060606111878782880161109c565b91505092959194509250565b61119c81610fda565b82525050565b60006020820190506111b76000830184611193565b92915050565b600082825260208201905092915050565b7f436f6e7472616374206973206e6f7420617070726f76656420746f206d616b6560008201527f207472616e736665720000000000000000000000000000000000000000000000602082015250565b600061122a6029836111bd565b9150611235826111ce565b604082019050919050565b600060208201905081810360008301526112598161121d565b9050919050565b7f5573657220686173207265766f6b656420617070726f76616c00000000000000600082015250565b60006112966019836111bd565b91506112a182611260565b602082019050919050565b600060208201905081810360008301526112c581611289565b9050919050565b6112d58161107b565b82525050565b600082825260208201905092915050565b50565b60006112fc6000836112db565b9150611307826112ec565b600082019050919050565b600060a0820190506113276000830187611193565b6113346020830186611193565b61134160408301856112cc565b61134e60608301846112cc565b818103608083015261135f816112ef565b905095945050505050565b600060608201905061137f6000830186611193565b61138c6020830185611193565b61139960408301846112cc565b949350505050565b6113aa81611045565b81146113b557600080fd5b50565b6000815190506113c7816113a1565b92915050565b6000602082840312156113e3576113e2610fb5565b5b60006113f1848285016113b8565b91505092915050565b7f4552433230207472616e73666572206661696c65640000000000000000000000600082015250565b60006114306015836111bd565b915061143b826113fa565b602082019050919050565b6000602082019050818103600083015261145f81611423565b9050919050565b600081519050919050565b600081905092915050565b60005b8381101561149a57808201518184015260208101905061147f565b60008484015250505050565b60006114b182611466565b6114bb8185611471565b93506114cb81856020860161147c565b80840191505092915050565b60006114e382846114a6565b91508190509291505056fea2646970667358221220f81c045c0f7db863fd6e15c0c7b73e495c595ec13db2889b1b686fa2f1e3407364736f6c63430008140033",
  "devdoc": {
    "details": "Proxy contract to manage user token approvals",
    "errors": {
      "AddressEmptyCode(address)": [
        {
          "details": "There's no code at `target` (it is not a contract)."
        }
      ],
      "AddressInsufficientBalance(address)": [
        {
          "details": "The ETH balance of the account is not enough to perform the operation."
        }
      ],
      "FailedInnerCall()": [
        {
          "details": "A call to an address target failed. The target may have reverted."
        }
      ],
      "OwnableInvalidOwner(address)": [
        {
          "details": "The owner is not a valid owner account. (eg. `address(0)`)"
        }
      ],
      "OwnableUnauthorizedAccount(address)": [
        {
          "details": "The caller account is not authorized to perform an operation."
        }
      ]
    },
    "kind": "dev",
    "methods": {
      "approveContract(address)": {
        "details": "Approve contract to call transfer functions",
        "params": {
          "_contract": "address of contract to approve"
        }
      },
      "denyContract(address)": {
        "details": "Revoke approval of contract to call transfer functions",
        "params": {
          "_contract": "address of contract to revoke approval"
        }
      },
      "grantApproval()": {
        "details": "Allow contract to make transfers on-behalf of a specific user"
      },
      "owner()": {
        "details": "Returns the address of the current owner."
      },
      "renounceOwnership()": {
        "details": "Leaves the contract without owner. It will not be possible to call `onlyOwner` functions. Can only be called by the current owner. NOTE: Renouncing ownership will leave the contract without an owner, thereby disabling any functionality that is only available to the owner."
      },
      "revokeApproval()": {
        "details": "Block contract from making transfers on-behalf of a specific user"
      },
      "transferERC1155(address,address,address,uint256,uint256)": {
        "details": "Transfer ERC1155 token using `safeTransferFrom`",
        "params": {
          "amount": "amount",
          "collection": "address of the collection",
          "from": "address of the sender",
          "to": "address of the recipient",
          "tokenId": "tokenId"
        }
      },
      "transferERC20(address,address,address,uint256)": {
        "details": "Transfer ERC20 token",
        "params": {
          "amount": "amount",
          "from": "address of the sender",
          "to": "address of the recipient",
          "token": "address of the token"
        }
      },
      "transferERC721(address,address,address,uint256)": {
        "details": "Transfer ERC721 token using `safeTransferFrom`",
        "params": {
          "collection": "address of the collection",
          "from": "address of the sender",
          "to": "address of the recipient",
          "tokenId": "tokenId"
        }
      },
      "transferERC721Unsafe(address,address,address,uint256)": {
        "details": "Transfer ERC721 token using `transferFrom`",
        "params": {
          "collection": "address of the collection",
          "from": "address of the sender",
          "to": "address of the recipient",
          "tokenId": "tokenId"
        }
      },
      "transferOwnership(address)": {
        "details": "Transfers ownership of the contract to a new account (`newOwner`). Can only be called by the current owner."
      }
    },
    "title": "ExecutionDelegate",
    "version": 1
  },
  "userdoc": {
    "kind": "user",
    "methods": {},
    "version": 1
  },
  "storageLayout": {
    "storage": [
      {
        "astId": 8,
        "contract": "contracts/ExecutionDelegate.sol:ExecutionDelegate",
        "label": "_owner",
        "offset": 0,
        "slot": "0",
        "type": "t_address"
      },
      {
        "astId": 781,
        "contract": "contracts/ExecutionDelegate.sol:ExecutionDelegate",
        "label": "contracts",
        "offset": 0,
        "slot": "1",
        "type": "t_mapping(t_address,t_bool)"
      },
      {
        "astId": 785,
        "contract": "contracts/ExecutionDelegate.sol:ExecutionDelegate",
        "label": "revokedApproval",
        "offset": 0,
        "slot": "2",
        "type": "t_mapping(t_address,t_bool)"
      }
    ],
    "types": {
      "t_address": {
        "encoding": "inplace",
        "label": "address",
        "numberOfBytes": "20"
      },
      "t_bool": {
        "encoding": "inplace",
        "label": "bool",
        "numberOfBytes": "1"
      },
      "t_mapping(t_address,t_bool)": {
        "encoding": "mapping",
        "key": "t_address",
        "label": "mapping(address => bool)",
        "numberOfBytes": "32",
        "value": "t_bool"
      }
    }
  }
}