{
  "address": "0x120326b72Bee1Bb4cF6C3e088A3C7F653F7Af1c6",
  "abi": [
    {
      "inputs": [],
      "name": "ECDSAInvalidSignature",
      "type": "error"
    },
    {
      "inputs": [
        {
          "internalType": "uint256",
          "name": "length",
          "type": "uint256"
        }
      ],
      "name": "ECDSAInvalidSignatureLength",
      "type": "error"
    },
    {
      "inputs": [
        {
          "internalType": "bytes32",
          "name": "s",
          "type": "bytes32"
        }
      ],
      "name": "ECDSAInvalidSignatureS",
      "type": "error"
    },
    {
      "inputs": [],
      "name": "InvalidInitialization",
      "type": "error"
    },
    {
      "inputs": [],
      "name": "NotInitializing",
      "type": "error"
    },
    {
      "inputs": [
        {
          "internalType": "address",
          "name": "owner",
          "type": "address"
        }
      ],
      "name": "OwnableInvalidOwner",
      "type": "error"
    },
    {
      "inputs": [
        {
          "internalType": "address",
          "name": "account",
          "type": "address"
        }
      ],
      "name": "OwnableUnauthorizedAccount",
      "type": "error"
    },
    {
      "inputs": [],
      "name": "ReentrancyGuardReentrantCall",
      "type": "error"
    },
    {
      "anonymous": false,
      "inputs": [],
      "name": "Closed",
      "type": "event"
    },
    {
      "anonymous": false,
      "inputs": [
        {
          "indexed": true,
          "internalType": "address",
          "name": "consumer",
          "type": "address"
        },
        {
          "indexed": false,
          "internalType": "uint256",
          "name": "amount",
          "type": "uint256"
        }
      ],
      "name": "ConsumeGas",
      "type": "event"
    },
    {
      "anonymous": false,
      "inputs": [],
      "name": "EIP712DomainChanged",
      "type": "event"
    },
    {
      "anonymous": false,
      "inputs": [
        {
          "indexed": false,
          "internalType": "uint64",
          "name": "version",
          "type": "uint64"
        }
      ],
      "name": "Initialized",
      "type": "event"
    },
    {
      "anonymous": false,
      "inputs": [
        {
          "indexed": false,
          "internalType": "uint256",
          "name": "blockRange",
          "type": "uint256"
        }
      ],
      "name": "NewBlockRange",
      "type": "event"
    },
    {
      "anonymous": false,
      "inputs": [
        {
          "indexed": true,
          "internalType": "contract IExecutionDelegate",
          "name": "executionDelegate",
          "type": "address"
        }
      ],
      "name": "NewExecutionDelegate",
      "type": "event"
    },
    {
      "anonymous": false,
      "inputs": [
        {
          "indexed": false,
          "internalType": "address",
          "name": "governor",
          "type": "address"
        }
      ],
      "name": "NewGovernor",
      "type": "event"
    },
    {
      "anonymous": false,
      "inputs": [
        {
          "indexed": true,
          "internalType": "address",
          "name": "trader",
          "type": "address"
        },
        {
          "indexed": false,
          "internalType": "uint256",
          "name": "newNonce",
          "type": "uint256"
        }
      ],
      "name": "NonceIncremented",
      "type": "event"
    },
    {
      "anonymous": false,
      "inputs": [],
      "name": "Opened",
      "type": "event"
    },
    {
      "anonymous": false,
      "inputs": [
        {
          "indexed": false,
          "internalType": "bytes32",
          "name": "hash",
          "type": "bytes32"
        }
      ],
      "name": "OrderCancelled",
      "type": "event"
    },
    {
      "anonymous": false,
      "inputs": [
        {
          "indexed": true,
          "internalType": "address",
          "name": "maker",
          "type": "address"
        },
        {
          "indexed": true,
          "internalType": "address",
          "name": "taker",
          "type": "address"
        },
        {
          "components": [
            {
              "internalType": "address",
              "name": "seller",
              "type": "address"
            },
            {
              "internalType": "enum AssetType",
              "name": "assetType",
              "type": "uint8"
            },
            {
              "internalType": "address",
              "name": "collection",
              "type": "address"
            },
            {
              "internalType": "uint256",
              "name": "tokenId",
              "type": "uint256"
            },
            {
              "internalType": "uint256",
              "name": "amount",
              "type": "uint256"
            },
            {
              "internalType": "address",
              "name": "paymentToken",
              "type": "address"
            },
            {
              "internalType": "uint256",
              "name": "price",
              "type": "uint256"
            },
            {
              "internalType": "uint256",
              "name": "listingTime",
              "type": "uint256"
            },
            {
              "internalType": "uint256",
              "name": "expirationTime",
              "type": "uint256"
            },
            {
              "internalType": "uint256",
              "name": "salt",
              "type": "uint256"
            }
          ],
          "indexed": false,
          "internalType": "struct Order",
          "name": "order",
          "type": "tuple"
        }
      ],
      "name": "OrdersMatched",
      "type": "event"
    },
    {
      "anonymous": false,
      "inputs": [
        {
          "indexed": true,
          "internalType": "address",
          "name": "previousOwner",
          "type": "address"
        },
        {
          "indexed": true,
          "internalType": "address",
          "name": "newOwner",
          "type": "address"
        }
      ],
      "name": "OwnershipTransferred",
      "type": "event"
    },
    {
      "inputs": [],
      "name": "NAME",
      "outputs": [
        {
          "internalType": "string",
          "name": "",
          "type": "string"
        }
      ],
      "stateMutability": "view",
      "type": "function"
    },
    {
      "inputs": [],
      "name": "ORDER_TYPEHASH",
      "outputs": [
        {
          "internalType": "bytes32",
          "name": "",
          "type": "bytes32"
        }
      ],
      "stateMutability": "view",
      "type": "function"
    },
    {
      "inputs": [],
      "name": "SPTOKEN",
      "outputs": [
        {
          "internalType": "address",
          "name": "",
          "type": "address"
        }
      ],
      "stateMutability": "view",
      "type": "function"
    },
    {
      "inputs": [],
      "name": "VERSION",
      "outputs": [
        {
          "internalType": "string",
          "name": "",
          "type": "string"
        }
      ],
      "stateMutability": "view",
      "type": "function"
    },
    {
      "inputs": [
        {
          "components": [
            {
              "components": [
                {
                  "internalType": "address",
                  "name": "seller",
                  "type": "address"
                },
                {
                  "internalType": "enum AssetType",
                  "name": "assetType",
                  "type": "uint8"
                },
                {
                  "internalType": "address",
                  "name": "collection",
                  "type": "address"
                },
                {
                  "internalType": "uint256",
                  "name": "tokenId",
                  "type": "uint256"
                },
                {
                  "internalType": "uint256",
                  "name": "amount",
                  "type": "uint256"
                },
                {
                  "internalType": "address",
                  "name": "paymentToken",
                  "type": "address"
                },
                {
                  "internalType": "uint256",
                  "name": "price",
                  "type": "uint256"
                },
                {
                  "internalType": "uint256",
                  "name": "listingTime",
                  "type": "uint256"
                },
                {
                  "internalType": "uint256",
                  "name": "expirationTime",
                  "type": "uint256"
                },
                {
                  "internalType": "uint256",
                  "name": "salt",
                  "type": "uint256"
                }
              ],
              "internalType": "struct Order",
              "name": "order",
              "type": "tuple"
            },
            {
              "internalType": "bytes",
              "name": "signatureBuyer",
              "type": "bytes"
            },
            {
              "internalType": "bytes",
              "name": "signatureSeller",
              "type": "bytes"
            }
          ],
          "internalType": "struct Input",
          "name": "input",
          "type": "tuple"
        }
      ],
      "name": "_execute",
      "outputs": [],
      "stateMutability": "payable",
      "type": "function"
    },
    {
      "inputs": [],
      "name": "blockRange",
      "outputs": [
        {
          "internalType": "uint256",
          "name": "",
          "type": "uint256"
        }
      ],
      "stateMutability": "view",
      "type": "function"
    },
    {
      "inputs": [
        {
          "components": [
            {
              "internalType": "address",
              "name": "seller",
              "type": "address"
            },
            {
              "internalType": "enum AssetType",
              "name": "assetType",
              "type": "uint8"
            },
            {
              "internalType": "address",
              "name": "collection",
              "type": "address"
            },
            {
              "internalType": "uint256",
              "name": "tokenId",
              "type": "uint256"
            },
            {
              "internalType": "uint256",
              "name": "amount",
              "type": "uint256"
            },
            {
              "internalType": "address",
              "name": "paymentToken",
              "type": "address"
            },
            {
              "internalType": "uint256",
              "name": "price",
              "type": "uint256"
            },
            {
              "internalType": "uint256",
              "name": "listingTime",
              "type": "uint256"
            },
            {
              "internalType": "uint256",
              "name": "expirationTime",
              "type": "uint256"
            },
            {
              "internalType": "uint256",
              "name": "salt",
              "type": "uint256"
            }
          ],
          "internalType": "struct Order",
          "name": "order",
          "type": "tuple"
        }
      ],
      "name": "cancelOrder",
      "outputs": [],
      "stateMutability": "nonpayable",
      "type": "function"
    },
    {
      "inputs": [
        {
          "internalType": "bytes32",
          "name": "",
          "type": "bytes32"
        }
      ],
      "name": "cancelledOrFilled",
      "outputs": [
        {
          "internalType": "bool",
          "name": "",
          "type": "bool"
        }
      ],
      "stateMutability": "view",
      "type": "function"
    },
    {
      "inputs": [],
      "name": "close",
      "outputs": [],
      "stateMutability": "nonpayable",
      "type": "function"
    },
    {
      "inputs": [],
      "name": "eip712Domain",
      "outputs": [
        {
          "internalType": "bytes1",
          "name": "fields",
          "type": "bytes1"
        },
        {
          "internalType": "string",
          "name": "name",
          "type": "string"
        },
        {
          "internalType": "string",
          "name": "version",
          "type": "string"
        },
        {
          "internalType": "uint256",
          "name": "chainId",
          "type": "uint256"
        },
        {
          "internalType": "address",
          "name": "verifyingContract",
          "type": "address"
        },
        {
          "internalType": "bytes32",
          "name": "salt",
          "type": "bytes32"
        },
        {
          "internalType": "uint256[]",
          "name": "extensions",
          "type": "uint256[]"
        }
      ],
      "stateMutability": "view",
      "type": "function"
    },
    {
      "inputs": [
        {
          "components": [
            {
              "components": [
                {
                  "internalType": "address",
                  "name": "seller",
                  "type": "address"
                },
                {
                  "internalType": "enum AssetType",
                  "name": "assetType",
                  "type": "uint8"
                },
                {
                  "internalType": "address",
                  "name": "collection",
                  "type": "address"
                },
                {
                  "internalType": "uint256",
                  "name": "tokenId",
                  "type": "uint256"
                },
                {
                  "internalType": "uint256",
                  "name": "amount",
                  "type": "uint256"
                },
                {
                  "internalType": "address",
                  "name": "paymentToken",
                  "type": "address"
                },
                {
                  "internalType": "uint256",
                  "name": "price",
                  "type": "uint256"
                },
                {
                  "internalType": "uint256",
                  "name": "listingTime",
                  "type": "uint256"
                },
                {
                  "internalType": "uint256",
                  "name": "expirationTime",
                  "type": "uint256"
                },
                {
                  "internalType": "uint256",
                  "name": "salt",
                  "type": "uint256"
                }
              ],
              "internalType": "struct Order",
              "name": "order",
              "type": "tuple"
            },
            {
              "internalType": "bytes",
              "name": "signatureBuyer",
              "type": "bytes"
            },
            {
              "internalType": "bytes",
              "name": "signatureSeller",
              "type": "bytes"
            }
          ],
          "internalType": "struct Input",
          "name": "order",
          "type": "tuple"
        }
      ],
      "name": "execute",
      "outputs": [],
      "stateMutability": "payable",
      "type": "function"
    },
    {
      "inputs": [],
      "name": "executionDelegate",
      "outputs": [
        {
          "internalType": "contract IExecutionDelegate",
          "name": "",
          "type": "address"
        }
      ],
      "stateMutability": "view",
      "type": "function"
    },
    {
      "inputs": [],
      "name": "incrementNonce",
      "outputs": [],
      "stateMutability": "nonpayable",
      "type": "function"
    },
    {
      "inputs": [
        {
          "internalType": "address",
          "name": "_owner",
          "type": "address"
        },
        {
          "internalType": "contract IExecutionDelegate",
          "name": "_executionDelegate",
          "type": "address"
        }
      ],
      "name": "initialize",
      "outputs": [],
      "stateMutability": "nonpayable",
      "type": "function"
    },
    {
      "inputs": [],
      "name": "isInternal",
      "outputs": [
        {
          "internalType": "bool",
          "name": "",
          "type": "bool"
        }
      ],
      "stateMutability": "view",
      "type": "function"
    },
    {
      "inputs": [],
      "name": "isOpen",
      "outputs": [
        {
          "internalType": "uint256",
          "name": "",
          "type": "uint256"
        }
      ],
      "stateMutability": "view",
      "type": "function"
    },
    {
      "inputs": [
        {
          "internalType": "address",
          "name": "",
          "type": "address"
        }
      ],
      "name": "nonces",
      "outputs": [
        {
          "internalType": "uint256",
          "name": "",
          "type": "uint256"
        }
      ],
      "stateMutability": "view",
      "type": "function"
    },
    {
      "inputs": [],
      "name": "open",
      "outputs": [],
      "stateMutability": "nonpayable",
      "type": "function"
    },
    {
      "inputs": [],
      "name": "owner",
      "outputs": [
        {
          "internalType": "address",
          "name": "",
          "type": "address"
        }
      ],
      "stateMutability": "view",
      "type": "function"
    },
    {
      "inputs": [],
      "name": "remainingETH",
      "outputs": [
        {
          "internalType": "uint256",
          "name": "",
          "type": "uint256"
        }
      ],
      "stateMutability": "view",
      "type": "function"
    },
    {
      "inputs": [],
      "name": "renounceOwnership",
      "outputs": [],
      "stateMutability": "nonpayable",
      "type": "function"
    },
    {
      "inputs": [
        {
          "internalType": "uint256",
          "name": "_blockRange",
          "type": "uint256"
        }
      ],
      "name": "setBlockRange",
      "outputs": [],
      "stateMutability": "nonpayable",
      "type": "function"
    },
    {
      "inputs": [
        {
          "internalType": "contract IExecutionDelegate",
          "name": "_executionDelegate",
          "type": "address"
        }
      ],
      "name": "setExecutionDelegate",
      "outputs": [],
      "stateMutability": "nonpayable",
      "type": "function"
    },
    {
      "inputs": [
        {
          "internalType": "address",
          "name": "newOwner",
          "type": "address"
        }
      ],
      "name": "transferOwnership",
      "outputs": [],
      "stateMutability": "nonpayable",
      "type": "function"
    }
  ],
  "transactionHash": "0xaeea987a5c2ab2659cc661ffdeee2c6eb04b5984b899f6ed478339d567034ee8",
  "args": [],
  "numDeployments": 12,
  "solcInputHash": "44bb3eb873f6d5e52a0b291f56a2323b",
  "bytecode": "0x60806040526000600560006101000a81548160ff021916908315150217905550600060065534801561003057600080fd5b50613cb6806100406000396000f3fe60806040526004361061014b5760003560e01c8063715018a6116100b6578063a4b2c6741161006f578063a4b2c6741461042d578063eecac12214610458578063f2fde38b14610474578063f973a2091461049d578063fcfff16f146104c8578063ffa1ad74146104df5761014b565b8063715018a6146103275780637ecebe001461033e57806384b0196e1461037b5780638da5cb5b146103ac578063986c9b20146103d7578063a3f4df7e146104025761014b565b806343d726d61161010857806343d726d61461023f57806347535d7b14610256578063485cc955146102815780635511f319146102aa578063627cdcb9146102e75780636992aa36146102fe5761014b565b8063037c9be21461015057806316e29d71146101795780631728ac68146101a4578063254bd15c146101cf5780632b51acae146101f85780632c7acf8c14610214575b600080fd5b34801561015c57600080fd5b50610177600480360381019061017291906127a4565b61050a565b005b34801561018557600080fd5b5061018e61062a565b60405161019b91906127ec565b60405180910390f35b3480156101b057600080fd5b506101b961063d565b6040516101c69190612816565b60405180910390f35b3480156101db57600080fd5b506101f660048036038101906101f19190612856565b610655565b005b610212600480360381019061020d91906128a4565b6107fc565b005b34801561022057600080fd5b50610229610d73565b6040516102369190612906565b60405180910390f35b34801561024b57600080fd5b50610254610d79565b005b34801561026257600080fd5b5061026b610db6565b6040516102789190612906565b60405180910390f35b34801561028d57600080fd5b506102a860048036038101906102a3919061294d565b610dbc565b005b3480156102b657600080fd5b506102d160048036038101906102cc91906129c3565b611011565b6040516102de91906127ec565b60405180910390f35b3480156102f357600080fd5b506102fc611031565b005b34801561030a57600080fd5b5061032560048036038101906103209190612a1c565b611117565b005b34801561033357600080fd5b5061033c611162565b005b34801561034a57600080fd5b5061036560048036038101906103609190612a49565b611176565b6040516103729190612906565b60405180910390f35b34801561038757600080fd5b5061039061118e565b6040516103a39796959493929190612c0e565b60405180910390f35b3480156103b857600080fd5b506103c16112a0565b6040516103ce9190612816565b60405180910390f35b3480156103e357600080fd5b506103ec6112d8565b6040516103f99190612cf1565b60405180910390f35b34801561040e57600080fd5b506104176112fe565b6040516104249190612d0c565b60405180910390f35b34801561043957600080fd5b50610442611337565b60405161044f9190612906565b60405180910390f35b610472600480360381019061046d91906128a4565b61133d565b005b34801561048057600080fd5b5061049b60048036038101906104969190612a49565b61142b565b005b3480156104a957600080fd5b506104b26114b1565b6040516104bf9190612d2e565b60405180910390f35b3480156104d457600080fd5b506104dd6114d5565b005b3480156104eb57600080fd5b506104f4611513565b6040516105019190612d0c565b60405180910390f35b61051261154c565b600073ffffffffffffffffffffffffffffffffffffffff168173ffffffffffffffffffffffffffffffffffffffff1603610581576040517f08c379a000000000000000000000000000000000000000000000000000000000815260040161057890612d95565b60405180910390fd5b80600160006101000a81548173ffffffffffffffffffffffffffffffffffffffff021916908373ffffffffffffffffffffffffffffffffffffffff160217905550600160009054906101000a900473ffffffffffffffffffffffffffffffffffffffff1673ffffffffffffffffffffffffffffffffffffffff167ff9a0f356a7ef079355de09d32ce45cc3cfabc8f118681c19a17501f005a376ac60405160405180910390a250565b600560009054906101000a900460ff1681565b733c67b79ed8a15ce7a7f4eff6c139c2bc37fe8cee81565b8060000160208101906106689190612a49565b73ffffffffffffffffffffffffffffffffffffffff163373ffffffffffffffffffffffffffffffffffffffff16146106d5576040517f08c379a00000000000000000000000000000000000000000000000000000000081526004016106cc90612e01565b60405180910390fd5b600061073282600460008560000160208101906106f29190612a49565b73ffffffffffffffffffffffffffffffffffffffff1673ffffffffffffffffffffffffffffffffffffffff168152602001908152602001600020546115d3565b90506003600082815260200190815260200160002060009054906101000a900460ff1615610795576040517f08c379a000000000000000000000000000000000000000000000000000000000815260040161078c90612e6d565b60405180910390fd5b60016003600083815260200190815260200160002060006101000a81548160ff0219169083151502179055507f5152abf959f6564662358c2e52b702259b78bac5ee7842a0f01937e670efcc7d816040516107f09190612d2e565b60405180910390a15050565b600560009054906101000a900460ff1661084b576040517f08c379a000000000000000000000000000000000000000000000000000000000815260040161084290612ed9565b60405180910390fd5b61085361169c565b60005a905060006108bb836000016004600086600001600001602081019061087b9190612a49565b73ffffffffffffffffffffffffffffffffffffffff1673ffffffffffffffffffffffffffffffffffffffff168152602001908152602001600020546115d3565b9050600061090b84600001600460003373ffffffffffffffffffffffffffffffffffffffff1673ffffffffffffffffffffffffffffffffffffffff168152602001908152602001600020546115d3565b905061091a84600001836116f3565b610959576040517f08c379a000000000000000000000000000000000000000000000000000000000815260040161095090612f45565b60405180910390fd5b6109cc8460000160000160208101906109729190612a49565b858061016001906109839190612f74565b8080601f016020809104026020016040519081016040528093929190818152602001838380828437600081840152601f19601f8201169050808301925050505050505084611788565b610a0b576040517f08c379a0000000000000000000000000000000000000000000000000000000008152600401610a0290613023565b60405180910390fd5b610a693385806101400190610a209190612f74565b8080601f016020809104026020016040519081016040528093929190818152602001838380828437600081840152601f19601f8201169050808301925050505050505083611788565b610aa8576040517f08c379a0000000000000000000000000000000000000000000000000000000008152600401610a9f9061308f565b60405180910390fd5b60016003600084815260200190815260200160002060006101000a81548160ff021916908315150217905550610b11846000016000016020810190610aed9190612a49565b338660000160a0016020810190610b049190612a49565b8760000160c001356117ea565b610b6c846000016040016020810190610b2a9190612a49565b856000016000016020810190610b409190612a49565b3387600001606001358860000160800135896000016020016020810190610b6791906130d4565b6118fd565b60005a905060008185610b7f9190613130565b9050733c67b79ed8a15ce7a7f4eff6c139c2bc37fe8cee73ffffffffffffffffffffffffffffffffffffffff166340c10f19876000016000016020810190610bc79190612a49565b836040518363ffffffff1660e01b8152600401610be5929190613164565b600060405180830381600087803b158015610bff57600080fd5b505af1158015610c13573d6000803e3d6000fd5b50505050733c67b79ed8a15ce7a7f4eff6c139c2bc37fe8cee73ffffffffffffffffffffffffffffffffffffffff166340c10f1933836040518363ffffffff1660e01b8152600401610c66929190613164565b600060405180830381600087803b158015610c8057600080fd5b505af1158015610c94573d6000803e3d6000fd5b505050503373ffffffffffffffffffffffffffffffffffffffff167f2fe1b87f5337ddc8fb7572fb9b5d597a3b8a5a09c31f53e3911de7ae1dded85782604051610cde9190612906565b60405180910390a23373ffffffffffffffffffffffffffffffffffffffff16866000016000016020810190610d139190612a49565b73ffffffffffffffffffffffffffffffffffffffff167f6ec91138bdf5186e47a2c280eec5a74b532f50d0a3d40e10dd8dbc0961d425bb88600001604051610d5b9190613374565b60405180910390a35050505050610d70611a8b565b50565b60065481565b610d8161154c565b600080819055507f1cdde67b72a90f19919ac732a437ac2f7a10fc128d28c2a6e525d89ce5cd9d3a60405160405180910390a1565b60005481565b6000610dc6611aa4565b905060008160000160089054906101000a900460ff1615905060008260000160009054906101000a900467ffffffffffffffff1690506000808267ffffffffffffffff16148015610e145750825b9050600060018367ffffffffffffffff16148015610e49575060003073ffffffffffffffffffffffffffffffffffffffff163b145b905081158015610e57575080155b15610e8e576040517ff92ee8a900000000000000000000000000000000000000000000000000000000815260040160405180910390fd5b60018560000160006101000a81548167ffffffffffffffff021916908367ffffffffffffffff1602179055508315610ede5760018560000160086101000a81548160ff0219169083151502179055505b610ee787611acc565b610f5b6040518060400160405280601181526020017f53616979615065742045786368616e67650000000000000000000000000000008152506040518060400160405280600381526020017f312e300000000000000000000000000000000000000000000000000000000000815250611ae0565b600160008190555085600160006101000a81548173ffffffffffffffffffffffffffffffffffffffff021916908373ffffffffffffffffffffffffffffffffffffffff160217905550610fac611aee565b83156110085760008560000160086101000a81548160ff0219169083151502179055507fc7f505b2f371ae2175ee4913f4499e1f2633a7b5936321eed1cdaeb6115181d26001604051610fff91906133df565b60405180910390a15b50505050505050565b60036020528060005260406000206000915054906101000a900460ff1681565b6001600460003373ffffffffffffffffffffffffffffffffffffffff1673ffffffffffffffffffffffffffffffffffffffff168152602001908152602001600020600082825461108191906133fa565b925050819055503373ffffffffffffffffffffffffffffffffffffffff167fa82a649bbd060c9099cd7b7326e2b0dc9e9af0836480e0f849dc9eaa79710b3b600460003373ffffffffffffffffffffffffffffffffffffffff1673ffffffffffffffffffffffffffffffffffffffff1681526020019081526020016000205460405161110d9190612906565b60405180910390a2565b61111f61154c565b806002819055507f7706177c541ba1b858371bfc568aa77450b4713bbdbba62c730d4484ab6c12516002546040516111579190612906565b60405180910390a150565b61116a61154c565b6111746000611b00565b565b60046020528060005260406000206000915090505481565b60006060806000806000606060006111a4611bd7565b90506000801b81600001541480156111c257506000801b8160010154145b611201576040517f08c379a00000000000000000000000000000000000000000000000000000000081526004016111f89061347a565b60405180910390fd5b611209611bff565b611211611ca0565b46306000801b600067ffffffffffffffff8111156112325761123161349a565b5b6040519080825280602002602001820160405280156112605781602001602082028036833780820191505090505b507f0f0000000000000000000000000000000000000000000000000000000000000095949392919097509750975097509750975097505090919293949596565b6000806112ab611d41565b90508060000160009054906101000a900473ffffffffffffffffffffffffffffffffffffffff1691505090565b600160009054906101000a900473ffffffffffffffffffffffffffffffffffffffff1681565b6040518060400160405280601181526020017f53616979615065742045786368616e676500000000000000000000000000000081525081565b60025481565b600160005414611382576040517f08c379a000000000000000000000000000000000000000000000000000000000815260040161137990613515565b60405180910390fd5b600560009054906101000a900460ff16156113d2576040517f08c379a00000000000000000000000000000000000000000000000000000000081526004016113c990612ed9565b60405180910390fd5b346006819055506001600560006101000a81548160ff0219169083151502179055506113fd816107fc565b611405611d69565b60006006819055506000600560006101000a81548160ff02191690831515021790555050565b61143361154c565b600073ffffffffffffffffffffffffffffffffffffffff168173ffffffffffffffffffffffffffffffffffffffff16036114a55760006040517f1e4fbdf700000000000000000000000000000000000000000000000000000000815260040161149c9190612816565b60405180910390fd5b6114ae81611b00565b50565b7fc31da01d3108c11cc981477db09458f9add3ea231e4a330e4bd14f2a0bfd689e81565b6114dd61154c565b60016000819055507fd1dcd00534373f20882b79e6ab6875a5c358c5bd576448757ed50e63069ab51860405160405180910390a1565b6040518060400160405280600381526020017f312e30000000000000000000000000000000000000000000000000000000000081525081565b611554611d92565b73ffffffffffffffffffffffffffffffffffffffff166115726112a0565b73ffffffffffffffffffffffffffffffffffffffff16146115d157611595611d92565b6040517f118cdaa70000000000000000000000000000000000000000000000000000000081526004016115c89190612816565b60405180910390fd5b565b60007fc31da01d3108c11cc981477db09458f9add3ea231e4a330e4bd14f2a0bfd689e8360000160208101906116099190612a49565b84602001602081019061161c91906130d4565b85604001602081019061162f9190612a49565b866060013587608001358860a001602081019061164c9190612a49565b8960c001358a60e001358b61010001358c61012001358c60405160200161167e9c9b9a99989796959493929190613544565b60405160208183030381529060405280519060200120905092915050565b60006116a6611d9a565b905060028160000154036116e6576040517f3ee5aeb500000000000000000000000000000000000000000000000000000000815260040160405180910390fd5b6002816000018190555050565b60008073ffffffffffffffffffffffffffffffffffffffff1683600001602081019061171f9190612a49565b73ffffffffffffffffffffffffffffffffffffffff161415801561176157506003600083815260200190815260200160002060009054906101000a900460ff16155b80156117705750428360e00135105b8015611780575082610100013542105b905092915050565b60003373ffffffffffffffffffffffffffffffffffffffff168473ffffffffffffffffffffffffffffffffffffffff16036117c657600190506117e3565b6117d1828585611dc2565b6117de57600090506117e3565b600190505b9392505050565b600073ffffffffffffffffffffffffffffffffffffffff168273ffffffffffffffffffffffffffffffffffffffff16036118eb578273ffffffffffffffffffffffffffffffffffffffff163373ffffffffffffffffffffffffffffffffffffffff161461188c576040517f08c379a00000000000000000000000000000000000000000000000000000000081526004016118839061364a565b60405180910390fd5b8060065410156118d1576040517f08c379a00000000000000000000000000000000000000000000000000000000081526004016118c8906136b6565b60405180910390fd5b80600660008282546118e39190613130565b925050819055505b6118f782848684611de5565b50505050565b60006001811115611911576119106131ca565b5b816001811115611924576119236131ca565b5b036119c157600160009054906101000a900473ffffffffffffffffffffffffffffffffffffffff1673ffffffffffffffffffffffffffffffffffffffff1663789f93f6878787876040518563ffffffff1660e01b815260040161198a94939291906136d6565b600060405180830381600087803b1580156119a457600080fd5b505af11580156119b8573d6000803e3d6000fd5b50505050611a83565b6001808111156119d4576119d36131ca565b5b8160018111156119e7576119e66131ca565b5b03611a8257600160009054906101000a900473ffffffffffffffffffffffffffffffffffffffff1673ffffffffffffffffffffffffffffffffffffffff166374a9402e87878787876040518663ffffffff1660e01b8152600401611a4f95949392919061371b565b600060405180830381600087803b158015611a6957600080fd5b505af1158015611a7d573d6000803e3d6000fd5b505050505b5b505050505050565b6000611a95611d9a565b90506001816000018190555050565b60007ff0c57e16840df040f15088dc2f81fe391c3923bec73e23a9662efc9c229c6a00905090565b611ad4612079565b611add816120b9565b50565b611aea828261213f565b5050565b611af6612079565b611afe612155565b565b6000611b0a611d41565b905060008160000160009054906101000a900473ffffffffffffffffffffffffffffffffffffffff169050828260000160006101000a81548173ffffffffffffffffffffffffffffffffffffffff021916908373ffffffffffffffffffffffffffffffffffffffff1602179055508273ffffffffffffffffffffffffffffffffffffffff168173ffffffffffffffffffffffffffffffffffffffff167f8be0079c531659141344cd1fd0a4f28419497f9722a3daafe3b4186f6b6457e060405160405180910390a3505050565b60007fa16a46d94261c7517cc8ff89f61c0ce93598e3c849801011dee649a6a557d100905090565b60606000611c0b611bd7565b9050806002018054611c1c9061379d565b80601f0160208091040260200160405190810160405280929190818152602001828054611c489061379d565b8015611c955780601f10611c6a57610100808354040283529160200191611c95565b820191906000526020600020905b815481529060010190602001808311611c7857829003601f168201915b505050505091505090565b60606000611cac611bd7565b9050806003018054611cbd9061379d565b80601f0160208091040260200160405190810160405280929190818152602001828054611ce99061379d565b8015611d365780601f10611d0b57610100808354040283529160200191611d36565b820191906000526020600020905b815481529060010190602001808311611d1957829003601f168201915b505050505091505090565b60007f9016d09d72d40fdae2fd8ceac6b6234c7706214fd39c1cd1e609a0528c199300905090565b600060065490506000811115611d8f5760008060008084335af180611d8d57600080fd5b505b50565b600033905090565b60007f9b779b17422d0df92223018b32b4d1fa46e071723d6817e2486d003becc55f00905090565b600080611dce85612176565b9050611ddb848285612188565b9150509392505050565b600081031561207357600073ffffffffffffffffffffffffffffffffffffffff168473ffffffffffffffffffffffffffffffffffffffff1603611f4357600073ffffffffffffffffffffffffffffffffffffffff168273ffffffffffffffffffffffffffffffffffffffff1603611e91576040517f08c379a0000000000000000000000000000000000000000000000000000000008152600401611e889061381a565b60405180910390fd5b60008273ffffffffffffffffffffffffffffffffffffffff1682604051611eb79061386b565b60006040518083038185875af1925050503d8060008114611ef4576040519150601f19603f3d011682016040523d82523d6000602084013e611ef9565b606091505b5050905080611f3d576040517f08c379a0000000000000000000000000000000000000000000000000000000008152600401611f34906138cc565b60405180910390fd5b50612072565b733c67b79ed8a15ce7a7f4eff6c139c2bc37fe8cee73ffffffffffffffffffffffffffffffffffffffff168473ffffffffffffffffffffffffffffffffffffffff160361203657600160009054906101000a900473ffffffffffffffffffffffffffffffffffffffff1673ffffffffffffffffffffffffffffffffffffffff1663da3e8ce4733c67b79ed8a15ce7a7f4eff6c139c2bc37fe8cee8585856040518563ffffffff1660e01b8152600401611fff94939291906136d6565b600060405180830381600087803b15801561201957600080fd5b505af115801561202d573d6000803e3d6000fd5b50505050612071565b6040517f08c379a000000000000000000000000000000000000000000000000000000000815260040161206890613938565b60405180910390fd5b5b5b50505050565b61208161220f565b6120b7576040517fd7e6bcf800000000000000000000000000000000000000000000000000000000815260040160405180910390fd5b565b6120c1612079565b600073ffffffffffffffffffffffffffffffffffffffff168173ffffffffffffffffffffffffffffffffffffffff16036121335760006040517f1e4fbdf700000000000000000000000000000000000000000000000000000000815260040161212a9190612816565b60405180910390fd5b61213c81611b00565b50565b612147612079565b612151828261222f565b5050565b61215d612079565b6000612167611d9a565b90506001816000018190555050565b600061218182612284565b9050919050565b600080612195848461229e565b9050600073ffffffffffffffffffffffffffffffffffffffff168173ffffffffffffffffffffffffffffffffffffffff16036121d5576000915050612208565b8073ffffffffffffffffffffffffffffffffffffffff168573ffffffffffffffffffffffffffffffffffffffff16149150505b9392505050565b6000612219611aa4565b60000160089054906101000a900460ff16905090565b612237612079565b6000612241611bd7565b9050828160020190816122549190613afa565b50818160030190816122669190613afa565b506000801b81600001819055506000801b8160010181905550505050565b60006122976122916122ca565b836122d9565b9050919050565b6000806000806122ae868661231a565b9250925092506122be8282612376565b82935050505092915050565b60006122d46124da565b905090565b60006040517f190100000000000000000000000000000000000000000000000000000000000081528360028201528260228201526042812091505092915050565b6000806000604184510361235f5760008060006020870151925060408701519150606087015160001a90506123518882858561253e565b95509550955050505061236f565b60006002855160001b9250925092505b9250925092565b6000600381111561238a576123896131ca565b5b82600381111561239d5761239c6131ca565b5b03156124d657600160038111156123b7576123b66131ca565b5b8260038111156123ca576123c96131ca565b5b03612401576040517ff645eedf00000000000000000000000000000000000000000000000000000000815260040160405180910390fd5b60026003811115612415576124146131ca565b5b826003811115612428576124276131ca565b5b0361246d578060001c6040517ffce698f70000000000000000000000000000000000000000000000000000000081526004016124649190612906565b60405180910390fd5b6003808111156124805761247f6131ca565b5b826003811115612493576124926131ca565b5b036124d557806040517fd78bce0c0000000000000000000000000000000000000000000000000000000081526004016124cc9190612d2e565b60405180910390fd5b5b5050565b60007f8b73c3c69bb8fe3d512ecc4cf759cc79239f7b179b0ffacaa9a75d522b39400f612505612632565b61250d6126ae565b4630604051602001612523959493929190613bcc565b60405160208183030381529060405280519060200120905090565b60008060007f7fffffffffffffffffffffffffffffff5d576e7357a4501ddfe92f46681b20a08460001c111561257e576000600385925092509250612628565b6000600188888888604051600081526020016040526040516125a39493929190613c3b565b6020604051602081039080840390855afa1580156125c5573d6000803e3d6000fd5b505050602060405103519050600073ffffffffffffffffffffffffffffffffffffffff168173ffffffffffffffffffffffffffffffffffffffff160361261957600060016000801b93509350935050612628565b8060008060001b935093509350505b9450945094915050565b60008061263d611bd7565b90506000612649611bff565b9050600081511115612666578080519060200120925050506126ab565b6000826000015490506000801b8114612684578093505050506126ab565b7fc5d2460186f7233c927e7db2dcc703c0e500b653ca82273b7bfad8045d85a47093505050505b90565b6000806126b9611bd7565b905060006126c5611ca0565b90506000815111156126e257808051906020012092505050612727565b6000826001015490506000801b811461270057809350505050612727565b7fc5d2460186f7233c927e7db2dcc703c0e500b653ca82273b7bfad8045d85a47093505050505b90565b600080fd5b600080fd5b600073ffffffffffffffffffffffffffffffffffffffff82169050919050565b600061275f82612734565b9050919050565b600061277182612754565b9050919050565b61278181612766565b811461278c57600080fd5b50565b60008135905061279e81612778565b92915050565b6000602082840312156127ba576127b961272a565b5b60006127c88482850161278f565b91505092915050565b60008115159050919050565b6127e6816127d1565b82525050565b600060208201905061280160008301846127dd565b92915050565b61281081612754565b82525050565b600060208201905061282b6000830184612807565b92915050565b600080fd5b6000610140828403121561284d5761284c612831565b5b81905092915050565b6000610140828403121561286d5761286c61272a565b5b600061287b84828501612836565b91505092915050565b6000610180828403121561289b5761289a612831565b5b81905092915050565b6000602082840312156128ba576128b961272a565b5b600082013567ffffffffffffffff8111156128d8576128d761272f565b5b6128e484828501612884565b91505092915050565b6000819050919050565b612900816128ed565b82525050565b600060208201905061291b60008301846128f7565b92915050565b61292a81612754565b811461293557600080fd5b50565b60008135905061294781612921565b92915050565b600080604083850312156129645761296361272a565b5b600061297285828601612938565b92505060206129838582860161278f565b9150509250929050565b6000819050919050565b6129a08161298d565b81146129ab57600080fd5b50565b6000813590506129bd81612997565b92915050565b6000602082840312156129d9576129d861272a565b5b60006129e7848285016129ae565b91505092915050565b6129f9816128ed565b8114612a0457600080fd5b50565b600081359050612a16816129f0565b92915050565b600060208284031215612a3257612a3161272a565b5b6000612a4084828501612a07565b91505092915050565b600060208284031215612a5f57612a5e61272a565b5b6000612a6d84828501612938565b91505092915050565b60007fff0000000000000000000000000000000000000000000000000000000000000082169050919050565b612aab81612a76565b82525050565b600081519050919050565b600082825260208201905092915050565b60005b83811015612aeb578082015181840152602081019050612ad0565b60008484015250505050565b6000601f19601f8301169050919050565b6000612b1382612ab1565b612b1d8185612abc565b9350612b2d818560208601612acd565b612b3681612af7565b840191505092915050565b612b4a8161298d565b82525050565b600081519050919050565b600082825260208201905092915050565b6000819050602082019050919050565b612b85816128ed565b82525050565b6000612b978383612b7c565b60208301905092915050565b6000602082019050919050565b6000612bbb82612b50565b612bc58185612b5b565b9350612bd083612b6c565b8060005b83811015612c01578151612be88882612b8b565b9750612bf383612ba3565b925050600181019050612bd4565b5085935050505092915050565b600060e082019050612c23600083018a612aa2565b8181036020830152612c358189612b08565b90508181036040830152612c498188612b08565b9050612c5860608301876128f7565b612c656080830186612807565b612c7260a0830185612b41565b81810360c0830152612c848184612bb0565b905098975050505050505050565b6000819050919050565b6000612cb7612cb2612cad84612734565b612c92565b612734565b9050919050565b6000612cc982612c9c565b9050919050565b6000612cdb82612cbe565b9050919050565b612ceb81612cd0565b82525050565b6000602082019050612d066000830184612ce2565b92915050565b60006020820190508181036000830152612d268184612b08565b905092915050565b6000602082019050612d436000830184612b41565b92915050565b7f416464726573732063616e6e6f74206265207a65726f00000000000000000000600082015250565b6000612d7f601683612abc565b9150612d8a82612d49565b602082019050919050565b60006020820190508181036000830152612dae81612d72565b9050919050565b7f4e6f742073656e742062792073656c6c65720000000000000000000000000000600082015250565b6000612deb601283612abc565b9150612df682612db5565b602082019050919050565b60006020820190508181036000830152612e1a81612dde565b9050919050565b7f4f726465722063616e63656c6c6564206f722066696c6c656400000000000000600082015250565b6000612e57601983612abc565b9150612e6282612e21565b602082019050919050565b60006020820190508181036000830152612e8681612e4a565b9050919050565b7f556e736166652063616c6c000000000000000000000000000000000000000000600082015250565b6000612ec3600b83612abc565b9150612ece82612e8d565b602082019050919050565b60006020820190508181036000830152612ef281612eb6565b9050919050565b7f53656c6c2068617320696e76616c696420706172616d65746572730000000000600082015250565b6000612f2f601b83612abc565b9150612f3a82612ef9565b602082019050919050565b60006020820190508181036000830152612f5e81612f22565b9050919050565b600080fd5b600080fd5b600080fd5b60008083356001602003843603038112612f9157612f90612f65565b5b80840192508235915067ffffffffffffffff821115612fb357612fb2612f6a565b5b602083019250600182023603831315612fcf57612fce612f6f565b5b509250929050565b7f53656c6c206661696c656420617574686f72697a6174696f6e00000000000000600082015250565b600061300d601983612abc565b915061301882612fd7565b602082019050919050565b6000602082019050818103600083015261303c81613000565b9050919050565b7f427579206661696c656420617574686f72697a6174696f6e0000000000000000600082015250565b6000613079601883612abc565b915061308482613043565b602082019050919050565b600060208201905081810360008301526130a88161306c565b9050919050565b600281106130bc57600080fd5b50565b6000813590506130ce816130af565b92915050565b6000602082840312156130ea576130e961272a565b5b60006130f8848285016130bf565b91505092915050565b7f4e487b7100000000000000000000000000000000000000000000000000000000600052601160045260246000fd5b600061313b826128ed565b9150613146836128ed565b925082820390508181111561315e5761315d613101565b5b92915050565b60006040820190506131796000830185612807565b61318660208301846128f7565b9392505050565b600061319c6020840184612938565b905092915050565b6131ad81612754565b82525050565b60006131c260208401846130bf565b905092915050565b7f4e487b7100000000000000000000000000000000000000000000000000000000600052602160045260246000fd5b6002811061320a576132096131ca565b5b50565b600081905061321b826131f9565b919050565b600061322b8261320d565b9050919050565b61323b81613220565b82525050565b60006132506020840184612a07565b905092915050565b610140820161326a600083018361318d565b61327760008501826131a4565b5061328560208301836131b3565b6132926020850182613232565b506132a0604083018361318d565b6132ad60408501826131a4565b506132bb6060830183613241565b6132c86060850182612b7c565b506132d66080830183613241565b6132e36080850182612b7c565b506132f160a083018361318d565b6132fe60a08501826131a4565b5061330c60c0830183613241565b61331960c0850182612b7c565b5061332760e0830183613241565b61333460e0850182612b7c565b50613343610100830183613241565b613351610100850182612b7c565b50613360610120830183613241565b61336e610120850182612b7c565b50505050565b60006101408201905061338a6000830184613258565b92915050565b6000819050919050565b600067ffffffffffffffff82169050919050565b60006133c96133c46133bf84613390565b612c92565b61339a565b9050919050565b6133d9816133ae565b82525050565b60006020820190506133f460008301846133d0565b92915050565b6000613405826128ed565b9150613410836128ed565b925082820190508082111561342857613427613101565b5b92915050565b7f4549503731323a20556e696e697469616c697a65640000000000000000000000600082015250565b6000613464601583612abc565b915061346f8261342e565b602082019050919050565b6000602082019050818103600083015261349381613457565b9050919050565b7f4e487b7100000000000000000000000000000000000000000000000000000000600052604160045260246000fd5b7f436c6f7365640000000000000000000000000000000000000000000000000000600082015250565b60006134ff600683612abc565b915061350a826134c9565b602082019050919050565b6000602082019050818103600083015261352e816134f2565b9050919050565b61353e81613220565b82525050565b60006101808201905061355a600083018f612b41565b613567602083018e612807565b613574604083018d613535565b613581606083018c612807565b61358e608083018b6128f7565b61359b60a083018a6128f7565b6135a860c0830189612807565b6135b560e08301886128f7565b6135c36101008301876128f7565b6135d16101208301866128f7565b6135df6101408301856128f7565b6135ed6101608301846128f7565b9d9c50505050505050505050505050565b7f43616e6e6f742075736520455448000000000000000000000000000000000000600082015250565b6000613634600e83612abc565b915061363f826135fe565b602082019050919050565b6000602082019050818103600083015261366381613627565b9050919050565b7f496e73756666696369656e742076616c75650000000000000000000000000000600082015250565b60006136a0601283612abc565b91506136ab8261366a565b602082019050919050565b600060208201905081810360008301526136cf81613693565b9050919050565b60006080820190506136eb6000830187612807565b6136f86020830186612807565b6137056040830185612807565b61371260608301846128f7565b95945050505050565b600060a0820190506137306000830188612807565b61373d6020830187612807565b61374a6040830186612807565b61375760608301856128f7565b61376460808301846128f7565b9695505050505050565b7f4e487b7100000000000000000000000000000000000000000000000000000000600052602260045260246000fd5b600060028204905060018216806137b557607f821691505b6020821081036137c8576137c761376e565b5b50919050565b7f5472616e7366657220746f207a65726f20616464726573730000000000000000600082015250565b6000613804601883612abc565b915061380f826137ce565b602082019050919050565b60006020820190508181036000830152613833816137f7565b9050919050565b600081905092915050565b50565b600061385560008361383a565b915061386082613845565b600082019050919050565b600061387682613848565b9150819050919050565b7f455448207472616e73666572206661696c656400000000000000000000000000600082015250565b60006138b6601383612abc565b91506138c182613880565b602082019050919050565b600060208201905081810360008301526138e5816138a9565b9050919050565b7f496e76616c6964207061796d656e7420746f6b656e0000000000000000000000600082015250565b6000613922601583612abc565b915061392d826138ec565b602082019050919050565b6000602082019050818103600083015261395181613915565b9050919050565b60008190508160005260206000209050919050565b60006020601f8301049050919050565b600082821b905092915050565b6000600883026139ba7fffffffffffffffffffffffffffffffffffffffffffffffffffffffffffffffff8261397d565b6139c4868361397d565b95508019841693508086168417925050509392505050565b60006139f76139f26139ed846128ed565b612c92565b6128ed565b9050919050565b6000819050919050565b613a11836139dc565b613a25613a1d826139fe565b84845461398a565b825550505050565b600090565b613a3a613a2d565b613a45818484613a08565b505050565b5b81811015613a6957613a5e600082613a32565b600181019050613a4b565b5050565b601f821115613aae57613a7f81613958565b613a888461396d565b81016020851015613a97578190505b613aab613aa38561396d565b830182613a4a565b50505b505050565b600082821c905092915050565b6000613ad160001984600802613ab3565b1980831691505092915050565b6000613aea8383613ac0565b9150826002028217905092915050565b613b0382612ab1565b67ffffffffffffffff811115613b1c57613b1b61349a565b5b613b26825461379d565b613b31828285613a6d565b600060209050601f831160018114613b645760008415613b52578287015190505b613b5c8582613ade565b865550613bc4565b601f198416613b7286613958565b60005b82811015613b9a57848901518255600182019150602085019450602081019050613b75565b86831015613bb75784890151613bb3601f891682613ac0565b8355505b6001600288020188555050505b505050505050565b600060a082019050613be16000830188612b41565b613bee6020830187612b41565b613bfb6040830186612b41565b613c0860608301856128f7565b613c156080830184612807565b9695505050505050565b600060ff82169050919050565b613c3581613c1f565b82525050565b6000608082019050613c506000830187612b41565b613c5d6020830186613c2c565b613c6a6040830185612b41565b613c776060830184612b41565b9594505050505056fea2646970667358221220f1c424f13456bd9707f561803167bbfed0b87c390794146fd1f7241c7a408a4b64736f6c63430008140033",
  "devdoc": {
    "details": "Core exchange contract",
    "errors": {
      "ECDSAInvalidSignature()": [
        {
          "details": "The signature derives the `address(0)`."
        }
      ],
      "ECDSAInvalidSignatureLength(uint256)": [
        {
          "details": "The signature has an invalid length."
        }
      ],
      "ECDSAInvalidSignatureS(bytes32)": [
        {
          "details": "The signature has an S value that is in the upper half order."
        }
      ],
      "InvalidInitialization()": [
        {
          "details": "The contract is already initialized."
        }
      ],
      "NotInitializing()": [
        {
          "details": "The contract is not initializing."
        }
      ],
      "OwnableInvalidOwner(address)": [
        {
          "details": "The owner is not a valid owner account. (eg. `address(0)`)"
        }
      ],
      "OwnableUnauthorizedAccount(address)": [
        {
          "details": "The caller account is not authorized to perform an operation."
        }
      ],
      "ReentrancyGuardReentrantCall()": [
        {
          "details": "Unauthorized reentrant call."
        }
      ]
    },
    "events": {
      "EIP712DomainChanged()": {
        "details": "MAY be emitted to signal that the domain could have changed."
      },
      "Initialized(uint64)": {
        "details": "Triggered when the contract has been initialized or reinitialized."
      }
    },
    "kind": "dev",
    "methods": {
      "_execute(((address,uint8,address,uint256,uint256,address,uint256,uint256,uint256,uint256),bytes,bytes))": {
        "details": "Match two orders, ensuring validity of the match, and execute all associated state transitions. Must be called internally."
      },
      "cancelOrder((address,uint8,address,uint256,uint256,address,uint256,uint256,uint256,uint256))": {
        "details": "Cancel an order, preventing it from being matched. Must be called by the trader of the order",
        "params": {
          "order": "Order to cancel"
        }
      },
      "eip712Domain()": {
        "details": "See {IERC-5267}."
      },
      "execute(((address,uint8,address,uint256,uint256,address,uint256,uint256,uint256,uint256),bytes,bytes))": {
        "details": "_execute wrapper"
      },
      "incrementNonce()": {
        "details": "Cancel all current orders for a user, preventing them from being matched. Must be called by the trader of the order"
      },
      "owner()": {
        "details": "Returns the address of the current owner."
      },
      "renounceOwnership()": {
        "details": "Leaves the contract without owner. It will not be possible to call `onlyOwner` functions. Can only be called by the current owner. NOTE: Renouncing ownership will leave the contract without an owner, thereby disabling any functionality that is only available to the owner."
      },
      "transferOwnership(address)": {
        "details": "Transfers ownership of the contract to a new account (`newOwner`). Can only be called by the current owner."
      }
    },
    "title": "Exchange",
    "version": 1
  },
  "userdoc": {
    "kind": "user",
    "methods": {},
    "version": 1
  },
  "storageLayout": {
    "storage": [
      {
        "astId": 7288,
        "contract": "contracts/Exchange.sol:Exchange",
        "label": "isOpen",
        "offset": 0,
        "slot": "0",
        "type": "t_uint256"
      },
      {
        "astId": 7377,
        "contract": "contracts/Exchange.sol:Exchange",
        "label": "executionDelegate",
        "offset": 0,
        "slot": "1",
        "type": "t_contract(IExecutionDelegate)8144"
      },
      {
        "astId": 7379,
        "contract": "contracts/Exchange.sol:Exchange",
        "label": "blockRange",
        "offset": 0,
        "slot": "2",
        "type": "t_uint256"
      },
      {
        "astId": 7383,
        "contract": "contracts/Exchange.sol:Exchange",
        "label": "cancelledOrFilled",
        "offset": 0,
        "slot": "3",
        "type": "t_mapping(t_bytes32,t_bool)"
      },
      {
        "astId": 7387,
        "contract": "contracts/Exchange.sol:Exchange",
        "label": "nonces",
        "offset": 0,
        "slot": "4",
        "type": "t_mapping(t_address,t_uint256)"
      },
      {
        "astId": 7390,
        "contract": "contracts/Exchange.sol:Exchange",
        "label": "isInternal",
        "offset": 0,
        "slot": "5",
        "type": "t_bool"
      },
      {
        "astId": 7393,
        "contract": "contracts/Exchange.sol:Exchange",
        "label": "remainingETH",
        "offset": 0,
        "slot": "6",
        "type": "t_uint256"
      }
    ],
    "types": {
      "t_address": {
        "encoding": "inplace",
        "label": "address",
        "numberOfBytes": "20"
      },
      "t_bool": {
        "encoding": "inplace",
        "label": "bool",
        "numberOfBytes": "1"
      },
      "t_bytes32": {
        "encoding": "inplace",
        "label": "bytes32",
        "numberOfBytes": "32"
      },
      "t_contract(IExecutionDelegate)8144": {
        "encoding": "inplace",
        "label": "contract IExecutionDelegate",
        "numberOfBytes": "20"
      },
      "t_mapping(t_address,t_uint256)": {
        "encoding": "mapping",
        "key": "t_address",
        "label": "mapping(address => uint256)",
        "numberOfBytes": "32",
        "value": "t_uint256"
      },
      "t_mapping(t_bytes32,t_bool)": {
        "encoding": "mapping",
        "key": "t_bytes32",
        "label": "mapping(bytes32 => bool)",
        "numberOfBytes": "32",
        "value": "t_bool"
      },
      "t_uint256": {
        "encoding": "inplace",
        "label": "uint256",
        "numberOfBytes": "32"
      }
    }
  }
}