{
  "address": "0xa670eAfE57AD3B4468e3172605a16f3de5E42029",
  "abi": [
    {
      "inputs": [],
      "stateMutability": "nonpayable",
      "type": "constructor"
    },
    {
      "inputs": [
        {
          "internalType": "address",
          "name": "sender",
          "type": "address"
        },
        {
          "internalType": "uint256",
          "name": "tokenId",
          "type": "uint256"
        },
        {
          "internalType": "address",
          "name": "owner",
          "type": "address"
        }
      ],
      "name": "ERC721IncorrectOwner",
      "type": "error"
    },
    {
      "inputs": [
        {
          "internalType": "address",
          "name": "operator",
          "type": "address"
        },
        {
          "internalType": "uint256",
          "name": "tokenId",
          "type": "uint256"
        }
      ],
      "name": "ERC721InsufficientApproval",
      "type": "error"
    },
    {
      "inputs": [
        {
          "internalType": "address",
          "name": "approver",
          "type": "address"
        }
      ],
      "name": "ERC721InvalidApprover",
      "type": "error"
    },
    {
      "inputs": [
        {
          "internalType": "address",
          "name": "operator",
          "type": "address"
        }
      ],
      "name": "ERC721InvalidOperator",
      "type": "error"
    },
    {
      "inputs": [
        {
          "internalType": "address",
          "name": "owner",
          "type": "address"
        }
      ],
      "name": "ERC721InvalidOwner",
      "type": "error"
    },
    {
      "inputs": [
        {
          "internalType": "address",
          "name": "receiver",
          "type": "address"
        }
      ],
      "name": "ERC721InvalidReceiver",
      "type": "error"
    },
    {
      "inputs": [
        {
          "internalType": "address",
          "name": "sender",
          "type": "address"
        }
      ],
      "name": "ERC721InvalidSender",
      "type": "error"
    },
    {
      "inputs": [
        {
          "internalType": "uint256",
          "name": "tokenId",
          "type": "uint256"
        }
      ],
      "name": "ERC721NonexistentToken",
      "type": "error"
    },
    {
      "inputs": [],
      "name": "EnforcedPause",
      "type": "error"
    },
    {
      "inputs": [],
      "name": "ExpectedPause",
      "type": "error"
    },
    {
      "anonymous": false,
      "inputs": [
        {
          "indexed": true,
          "internalType": "address",
          "name": "owner",
          "type": "address"
        },
        {
          "indexed": true,
          "internalType": "address",
          "name": "approved",
          "type": "address"
        },
        {
          "indexed": true,
          "internalType": "uint256",
          "name": "tokenId",
          "type": "uint256"
        }
      ],
      "name": "Approval",
      "type": "event"
    },
    {
      "anonymous": false,
      "inputs": [
        {
          "indexed": true,
          "internalType": "address",
          "name": "owner",
          "type": "address"
        },
        {
          "indexed": true,
          "internalType": "address",
          "name": "operator",
          "type": "address"
        },
        {
          "indexed": false,
          "internalType": "bool",
          "name": "approved",
          "type": "bool"
        }
      ],
      "name": "ApprovalForAll",
      "type": "event"
    },
    {
      "anonymous": false,
      "inputs": [
        {
          "indexed": false,
          "internalType": "address",
          "name": "account",
          "type": "address"
        }
      ],
      "name": "Paused",
      "type": "event"
    },
    {
      "anonymous": false,
      "inputs": [
        {
          "indexed": true,
          "internalType": "address",
          "name": "from",
          "type": "address"
        },
        {
          "indexed": true,
          "internalType": "address",
          "name": "to",
          "type": "address"
        },
        {
          "indexed": true,
          "internalType": "uint256",
          "name": "tokenId",
          "type": "uint256"
        }
      ],
      "name": "Transfer",
      "type": "event"
    },
    {
      "anonymous": false,
      "inputs": [
        {
          "indexed": false,
          "internalType": "address",
          "name": "account",
          "type": "address"
        }
      ],
      "name": "Unpaused",
      "type": "event"
    },
    {
      "inputs": [
        {
          "internalType": "address",
          "name": "to",
          "type": "address"
        },
        {
          "internalType": "uint256",
          "name": "tokenId",
          "type": "uint256"
        }
      ],
      "name": "approve",
      "outputs": [],
      "stateMutability": "nonpayable",
      "type": "function"
    },
    {
      "inputs": [
        {
          "internalType": "address",
          "name": "owner",
          "type": "address"
        }
      ],
      "name": "balanceOf",
      "outputs": [
        {
          "internalType": "uint256",
          "name": "",
          "type": "uint256"
        }
      ],
      "stateMutability": "view",
      "type": "function"
    },
    {
      "inputs": [
        {
          "internalType": "uint256",
          "name": "tokenId",
          "type": "uint256"
        }
      ],
      "name": "burn",
      "outputs": [],
      "stateMutability": "nonpayable",
      "type": "function"
    },
    {
      "inputs": [
        {
          "internalType": "uint256",
          "name": "tokenId",
          "type": "uint256"
        }
      ],
      "name": "getApproved",
      "outputs": [
        {
          "internalType": "address",
          "name": "",
          "type": "address"
        }
      ],
      "stateMutability": "view",
      "type": "function"
    },
    {
      "inputs": [
        {
          "internalType": "uint256",
          "name": "tokenId",
          "type": "uint256"
        },
        {
          "internalType": "uint256",
          "name": "exp",
          "type": "uint256"
        }
      ],
      "name": "increaseExp",
      "outputs": [],
      "stateMutability": "nonpayable",
      "type": "function"
    },
    {
      "inputs": [
        {
          "internalType": "uint256",
          "name": "tokenId",
          "type": "uint256"
        }
      ],
      "name": "increaseLevel",
      "outputs": [],
      "stateMutability": "nonpayable",
      "type": "function"
    },
    {
      "inputs": [
        {
          "internalType": "address",
          "name": "owner",
          "type": "address"
        },
        {
          "internalType": "address",
          "name": "operator",
          "type": "address"
        }
      ],
      "name": "isApprovedForAll",
      "outputs": [
        {
          "internalType": "bool",
          "name": "",
          "type": "bool"
        }
      ],
      "stateMutability": "view",
      "type": "function"
    },
    {
      "inputs": [
        {
          "internalType": "address",
          "name": "to",
          "type": "address"
        }
      ],
      "name": "mintPet",
      "outputs": [],
      "stateMutability": "nonpayable",
      "type": "function"
    },
    {
      "inputs": [],
      "name": "name",
      "outputs": [
        {
          "internalType": "string",
          "name": "",
          "type": "string"
        }
      ],
      "stateMutability": "view",
      "type": "function"
    },
    {
      "inputs": [
        {
          "internalType": "uint256",
          "name": "tokenId",
          "type": "uint256"
        }
      ],
      "name": "ownerOf",
      "outputs": [
        {
          "internalType": "address",
          "name": "",
          "type": "address"
        }
      ],
      "stateMutability": "view",
      "type": "function"
    },
    {
      "inputs": [],
      "name": "paused",
      "outputs": [
        {
          "internalType": "bool",
          "name": "",
          "type": "bool"
        }
      ],
      "stateMutability": "view",
      "type": "function"
    },
    {
      "inputs": [
        {
          "internalType": "uint256",
          "name": "tokenId",
          "type": "uint256"
        }
      ],
      "name": "resetPet",
      "outputs": [],
      "stateMutability": "nonpayable",
      "type": "function"
    },
    {
      "inputs": [
        {
          "internalType": "address",
          "name": "from",
          "type": "address"
        },
        {
          "internalType": "address",
          "name": "to",
          "type": "address"
        },
        {
          "internalType": "uint256",
          "name": "tokenId",
          "type": "uint256"
        }
      ],
      "name": "safeTransferFrom",
      "outputs": [],
      "stateMutability": "nonpayable",
      "type": "function"
    },
    {
      "inputs": [
        {
          "internalType": "address",
          "name": "from",
          "type": "address"
        },
        {
          "internalType": "address",
          "name": "to",
          "type": "address"
        },
        {
          "internalType": "uint256",
          "name": "tokenId",
          "type": "uint256"
        },
        {
          "internalType": "bytes",
          "name": "data",
          "type": "bytes"
        }
      ],
      "name": "safeTransferFrom",
      "outputs": [],
      "stateMutability": "nonpayable",
      "type": "function"
    },
    {
      "inputs": [
        {
          "internalType": "address",
          "name": "operator",
          "type": "address"
        },
        {
          "internalType": "bool",
          "name": "approved",
          "type": "bool"
        }
      ],
      "name": "setApprovalForAll",
      "outputs": [],
      "stateMutability": "nonpayable",
      "type": "function"
    },
    {
      "inputs": [
        {
          "internalType": "uint256",
          "name": "tokenId",
          "type": "uint256"
        },
        {
          "internalType": "uint256",
          "name": "hp",
          "type": "uint256"
        }
      ],
      "name": "setHp",
      "outputs": [],
      "stateMutability": "nonpayable",
      "type": "function"
    },
    {
      "inputs": [
        {
          "internalType": "bytes4",
          "name": "interfaceId",
          "type": "bytes4"
        }
      ],
      "name": "supportsInterface",
      "outputs": [
        {
          "internalType": "bool",
          "name": "",
          "type": "bool"
        }
      ],
      "stateMutability": "view",
      "type": "function"
    },
    {
      "inputs": [],
      "name": "symbol",
      "outputs": [
        {
          "internalType": "string",
          "name": "",
          "type": "string"
        }
      ],
      "stateMutability": "view",
      "type": "function"
    },
    {
      "inputs": [
        {
          "internalType": "uint256",
          "name": "tokenId",
          "type": "uint256"
        }
      ],
      "name": "tokenURI",
      "outputs": [
        {
          "internalType": "string",
          "name": "",
          "type": "string"
        }
      ],
      "stateMutability": "view",
      "type": "function"
    },
    {
      "inputs": [
        {
          "internalType": "address",
          "name": "from",
          "type": "address"
        },
        {
          "internalType": "address",
          "name": "to",
          "type": "address"
        },
        {
          "internalType": "uint256",
          "name": "tokenId",
          "type": "uint256"
        }
      ],
      "name": "transferFrom",
      "outputs": [],
      "stateMutability": "nonpayable",
      "type": "function"
    }
  ],
  "transactionHash": "0xabe30fd36a349f603cece310b1064c4fcb2bad896acc308fae7a36af56d5fdb5",
  "args": [],
  "numDeployments": 1,
  "solcInputHash": "d758455bf782805375a8bd9ca2690776",
  "bytecode": "0x60806040523480156200001157600080fd5b506040518060400160405280600381526020017f50657400000000000000000000000000000000000000000000000000000000008152506040518060400160405280600281526020017f505400000000000000000000000000000000000000000000000000000000000081525081600190816200008f91906200033f565b508060029081620000a191906200033f565b5050506000600760006101000a81548160ff02191690831515021790555062000426565b600081519050919050565b7f4e487b7100000000000000000000000000000000000000000000000000000000600052604160045260246000fd5b7f4e487b7100000000000000000000000000000000000000000000000000000000600052602260045260246000fd5b600060028204905060018216806200014757607f821691505b6020821081036200015d576200015c620000ff565b5b50919050565b60008190508160005260206000209050919050565b60006020601f8301049050919050565b600082821b905092915050565b600060088302620001c77fffffffffffffffffffffffffffffffffffffffffffffffffffffffffffffffff8262000188565b620001d3868362000188565b95508019841693508086168417925050509392505050565b6000819050919050565b6000819050919050565b6000620002206200021a6200021484620001eb565b620001f5565b620001eb565b9050919050565b6000819050919050565b6200023c83620001ff565b620002546200024b8262000227565b84845462000195565b825550505050565b600090565b6200026b6200025c565b6200027881848462000231565b505050565b5b81811015620002a0576200029460008262000261565b6001810190506200027e565b5050565b601f821115620002ef57620002b98162000163565b620002c48462000178565b81016020851015620002d4578190505b620002ec620002e38562000178565b8301826200027d565b50505b505050565b600082821c905092915050565b60006200031460001984600802620002f4565b1980831691505092915050565b60006200032f838362000301565b9150826002028217905092915050565b6200034a82620000c5565b67ffffffffffffffff811115620003665762000365620000d0565b5b6200037282546200012e565b6200037f828285620002a4565b600060209050601f831160018114620003b75760008415620003a2578287015190505b620003ae858262000321565b8655506200041e565b601f198416620003c78662000163565b60005b82811015620003f157848901518255600182019150602085019450602081019050620003ca565b868310156200041157848901516200040d601f89168262000301565b8355505b6001600288020188555050505b505050505050565b614d8f80620004366000396000f3fe608060405234801561001057600080fd5b506004361061012c5760003560e01c80636352211e116100ad578063b88d4fde11610071578063b88d4fde1461032b578063c429a77314610347578063c87b56dd14610363578063e985e9c514610393578063fa592846146103c35761012c565b80636352211e1461027557806370a08231146102a55780638fa17f37146102d557806395d89b41146102f1578063a22cb4651461030f5761012c565b806323b872dd116100f457806323b872dd146101e7578063412071051461020357806342842e0e1461021f57806342966c681461023b5780635c975abb146102575761012c565b806301ffc9a71461013157806306fdde0314610161578063081812fc1461017f578063095ea7b3146101af578063117c9091146101cb575b600080fd5b61014b60048036038101906101469190611aaf565b6103df565b6040516101589190611af7565b60405180910390f35b6101696103f1565b6040516101769190611ba2565b60405180910390f35b61019960048036038101906101949190611bfa565b610483565b6040516101a69190611c68565b60405180910390f35b6101c960048036038101906101c49190611caf565b61049f565b005b6101e560048036038101906101e09190611bfa565b6104b5565b005b61020160048036038101906101fc9190611cef565b610509565b005b61021d60048036038101906102189190611bfa565b61060b565b005b61023960048036038101906102349190611cef565b61063b565b005b61025560048036038101906102509190611bfa565b61065b565b005b61025f610672565b60405161026c9190611af7565b60405180910390f35b61028f600480360381019061028a9190611bfa565b610689565b60405161029c9190611c68565b60405180910390f35b6102bf60048036038101906102ba9190611d42565b61069b565b6040516102cc9190611d7e565b60405180910390f35b6102ef60048036038101906102ea9190611d99565b610755565b005b6102f9610773565b6040516103069190611ba2565b60405180910390f35b61032960048036038101906103249190611e05565b610805565b005b61034560048036038101906103409190611f7a565b61081b565b005b610361600480360381019061035c9190611d99565b610838565b005b61037d60048036038101906103789190611bfa565b610868565b60405161038a9190611ba2565b60405180910390f35b6103ad60048036038101906103a89190611ffd565b6108ce565b6040516103ba9190611af7565b60405180910390f35b6103dd60048036038101906103d89190611d42565b610962565b005b60006103ea82610994565b9050919050565b6060600180546104009061206c565b80601f016020809104026020016040519081016040528092919081815260200182805461042c9061206c565b80156104795780601f1061044e57610100808354040283529160200191610479565b820191906000526020600020905b81548152906001019060200180831161045c57829003601f168201915b5050505050905090565b600061048e82610a76565b5061049882610afe565b9050919050565b6104b182826104ac610b3b565b610b43565b5050565b60405180606001604052806000815260200160008152602001606481525060008083815260200190815260200160002060008201518160000155602082015181600101556040820151816002015590505050565b600073ffffffffffffffffffffffffffffffffffffffff168273ffffffffffffffffffffffffffffffffffffffff160361057b5760006040517f64a0ae920000000000000000000000000000000000000000000000000000000081526004016105729190611c68565b60405180910390fd5b600061058f838361058a610b3b565b610b55565b90508373ffffffffffffffffffffffffffffffffffffffff168173ffffffffffffffffffffffffffffffffffffffff1614610605578382826040517f64283d7b0000000000000000000000000000000000000000000000000000000081526004016105fc9392919061209d565b60405180910390fd5b50505050565b600160008083815260200190815260200160002060000160008282546106319190612103565b9250508190555050565b6106568383836040518060200160405280600081525061081b565b505050565b61066e600082610669610b3b565b610b55565b5050565b6000600760009054906101000a900460ff16905090565b600061069482610a76565b9050919050565b60008073ffffffffffffffffffffffffffffffffffffffff168273ffffffffffffffffffffffffffffffffffffffff160361070e5760006040517f89c62b640000000000000000000000000000000000000000000000000000000081526004016107059190611c68565b60405180910390fd5b600460008373ffffffffffffffffffffffffffffffffffffffff1673ffffffffffffffffffffffffffffffffffffffff168152602001908152602001600020549050919050565b80600080848152602001908152602001600020600201819055505050565b6060600280546107829061206c565b80601f01602080910402602001604051908101604052809291908181526020018280546107ae9061206c565b80156107fb5780601f106107d0576101008083540402835291602001916107fb565b820191906000526020600020905b8154815290600101906020018083116107de57829003601f168201915b5050505050905090565b610817610810610b3b565b8383610b6b565b5050565b610826848484610509565b61083284848484610cda565b50505050565b80600080848152602001908152602001600020600101600082825461085d9190612103565b925050819055505050565b6060600073ffffffffffffffffffffffffffffffffffffffff1661088b83610689565b73ffffffffffffffffffffffffffffffffffffffff16036108bd576040518060200160405280600081525090506108c9565b6108c682610e91565b90505b919050565b6000600660008473ffffffffffffffffffffffffffffffffffffffff1673ffffffffffffffffffffffffffffffffffffffff16815260200190815260200160002060008373ffffffffffffffffffffffffffffffffffffffff1673ffffffffffffffffffffffffffffffffffffffff16815260200190815260200160002060009054906101000a900460ff16905092915050565b60006008600081548092919061097790612137565b9190505590506109878282610f27565b61099081610f45565b5050565b60007f80ac58cd000000000000000000000000000000000000000000000000000000007bffffffffffffffffffffffffffffffffffffffffffffffffffffffff1916827bffffffffffffffffffffffffffffffffffffffffffffffffffffffff19161480610a5f57507f5b5e139f000000000000000000000000000000000000000000000000000000007bffffffffffffffffffffffffffffffffffffffffffffffffffffffff1916827bffffffffffffffffffffffffffffffffffffffffffffffffffffffff1916145b80610a6f5750610a6e82610f99565b5b9050919050565b600080610a8283611003565b9050600073ffffffffffffffffffffffffffffffffffffffff168173ffffffffffffffffffffffffffffffffffffffff1603610af557826040517f7e273289000000000000000000000000000000000000000000000000000000008152600401610aec9190611d7e565b60405180910390fd5b80915050919050565b60006005600083815260200190815260200160002060009054906101000a900473ffffffffffffffffffffffffffffffffffffffff169050919050565b600033905090565b610b508383836001611040565b505050565b6000610b62848484611205565b90509392505050565b600073ffffffffffffffffffffffffffffffffffffffff168273ffffffffffffffffffffffffffffffffffffffff1603610bdc57816040517f5b08ba18000000000000000000000000000000000000000000000000000000008152600401610bd39190611c68565b60405180910390fd5b80600660008573ffffffffffffffffffffffffffffffffffffffff1673ffffffffffffffffffffffffffffffffffffffff16815260200190815260200160002060008473ffffffffffffffffffffffffffffffffffffffff1673ffffffffffffffffffffffffffffffffffffffff16815260200190815260200160002060006101000a81548160ff0219169083151502179055508173ffffffffffffffffffffffffffffffffffffffff168373ffffffffffffffffffffffffffffffffffffffff167f17307eab39ab6107e8899845ad3d59bd9653f200f220920489ca2b5937696c3183604051610ccd9190611af7565b60405180910390a3505050565b60008373ffffffffffffffffffffffffffffffffffffffff163b1115610e8b578273ffffffffffffffffffffffffffffffffffffffff1663150b7a02610d1e610b3b565b8685856040518563ffffffff1660e01b8152600401610d4094939291906121d4565b6020604051808303816000875af1925050508015610d7c57506040513d601f19601f82011682018060405250810190610d799190612235565b60015b610e00573d8060008114610dac576040519150601f19603f3d011682016040523d82523d6000602084013e610db1565b606091505b506000815103610df857836040517f64a0ae92000000000000000000000000000000000000000000000000000000008152600401610def9190611c68565b60405180910390fd5b805181602001fd5b63150b7a0260e01b7bffffffffffffffffffffffffffffffffffffffffffffffffffffffff1916817bffffffffffffffffffffffffffffffffffffffffffffffffffffffff191614610e8957836040517f64a0ae92000000000000000000000000000000000000000000000000000000008152600401610e809190611c68565b60405180910390fd5b505b50505050565b606060008060008481526020019081526020016000206000015403610ebf57610eb8611223565b9050610f22565b60016000808481526020019081526020016000206000015403610eeb57610ee46112bb565b9050610f22565b60026000808481526020019081526020016000206000015403610f1757610f10611353565b9050610f22565b610f1f611223565b90505b919050565b610f418282604051806020016040528060008152506113eb565b5050565b60405180606001604052806000815260200160008152602001606481525060008083815260200190815260200160002060008201518160000155602082015181600101556040820151816002015590505050565b60007f01ffc9a7000000000000000000000000000000000000000000000000000000007bffffffffffffffffffffffffffffffffffffffffffffffffffffffff1916827bffffffffffffffffffffffffffffffffffffffffffffffffffffffff1916149050919050565b60006003600083815260200190815260200160002060009054906101000a900473ffffffffffffffffffffffffffffffffffffffff169050919050565b80806110795750600073ffffffffffffffffffffffffffffffffffffffff168273ffffffffffffffffffffffffffffffffffffffff1614155b156111ad57600061108984610a76565b9050600073ffffffffffffffffffffffffffffffffffffffff168373ffffffffffffffffffffffffffffffffffffffff16141580156110f457508273ffffffffffffffffffffffffffffffffffffffff168173ffffffffffffffffffffffffffffffffffffffff1614155b8015611107575061110581846108ce565b155b1561114957826040517fa9fbf51f0000000000000000000000000000000000000000000000000000000081526004016111409190611c68565b60405180910390fd5b81156111ab57838573ffffffffffffffffffffffffffffffffffffffff168273ffffffffffffffffffffffffffffffffffffffff167f8c5be1e5ebec7d5bd14f71427d1e84f3dd0314c0f7b2291e5b200ac8c7c3b92560405160405180910390a45b505b836005600085815260200190815260200160002060006101000a81548173ffffffffffffffffffffffffffffffffffffffff021916908373ffffffffffffffffffffffffffffffffffffffff16021790555050505050565b600061120f611407565b61121a848484611448565b90509392505050565b6060600061124d60405160200161123990612f9e565b604051602081830303815290604052611662565b60405160200161125d9190613046565b604051602081830303815290604052905061129681604051602001611282919061313c565b604051602081830303815290604052611662565b6040516020016112a691906131b5565b60405160208183030381529060405291505090565b606060006112e56040516020016112d190614089565b604051602081830303815290604052611662565b6040516020016112f59190613046565b604051602081830303815290604052905061132e8160405160200161131a919061313c565b604051602081830303815290604052611662565b60405160200161133e91906131b5565b60405160208183030381529060405291505090565b6060600061137d60405160200161136990614c23565b604051602081830303815290604052611662565b60405160200161138d9190613046565b60405160208183030381529060405290506113c6816040516020016113b2919061313c565b604051602081830303815290604052611662565b6040516020016113d691906131b5565b60405160208183030381529060405291505090565b6113f583836117c5565b6114026000848484610cda565b505050565b61140f610672565b15611446576040517fd93c066500000000000000000000000000000000000000000000000000000000815260040160405180910390fd5b565b60008061145484611003565b9050600073ffffffffffffffffffffffffffffffffffffffff168373ffffffffffffffffffffffffffffffffffffffff1614611496576114958184866118be565b5b600073ffffffffffffffffffffffffffffffffffffffff168173ffffffffffffffffffffffffffffffffffffffff1614611527576114d8600085600080611040565b6001600460008373ffffffffffffffffffffffffffffffffffffffff1673ffffffffffffffffffffffffffffffffffffffff168152602001908152602001600020600082825403925050819055505b600073ffffffffffffffffffffffffffffffffffffffff168573ffffffffffffffffffffffffffffffffffffffff16146115aa576001600460008773ffffffffffffffffffffffffffffffffffffffff1673ffffffffffffffffffffffffffffffffffffffff168152602001908152602001600020600082825401925050819055505b846003600086815260200190815260200160002060006101000a81548173ffffffffffffffffffffffffffffffffffffffff021916908373ffffffffffffffffffffffffffffffffffffffff160217905550838573ffffffffffffffffffffffffffffffffffffffff168273ffffffffffffffffffffffffffffffffffffffff167fddf252ad1be2c89b69c2b068fc378daa952ba7f163c4a11628f55a4df523b3ef60405160405180910390a4809150509392505050565b60606000825103611684576040518060200160405280600081525090506117c0565b6000604051806060016040528060408152602001614d1a60409139905060006003600285516116b39190612103565b6116bd9190614c7d565b60046116c99190614cae565b67ffffffffffffffff8111156116e2576116e1611e4f565b5b6040519080825280601f01601f1916602001820160405280156117145781602001600182028036833780820191505090505b509050600182016020820185865187015b80821015611780576003820191508151603f8160121c168501518453600184019350603f81600c1c168501518453600184019350603f8160061c168501518453600184019350603f8116850151845360018401935050611725565b505060038651066001811461179c57600281146117af576117b7565b603d6001830353603d60028303536117b7565b603d60018303535b50505080925050505b919050565b600073ffffffffffffffffffffffffffffffffffffffff168273ffffffffffffffffffffffffffffffffffffffff16036118375760006040517f64a0ae9200000000000000000000000000000000000000000000000000000000815260040161182e9190611c68565b60405180910390fd5b600061184583836000610b55565b9050600073ffffffffffffffffffffffffffffffffffffffff168173ffffffffffffffffffffffffffffffffffffffff16146118b95760006040517f73c6ac6e0000000000000000000000000000000000000000000000000000000081526004016118b09190611c68565b60405180910390fd5b505050565b6118c9838383611982565b61197d57600073ffffffffffffffffffffffffffffffffffffffff168373ffffffffffffffffffffffffffffffffffffffff160361193e57806040517f7e2732890000000000000000000000000000000000000000000000000000000081526004016119359190611d7e565b60405180910390fd5b81816040517f177e802f000000000000000000000000000000000000000000000000000000008152600401611974929190614cf0565b60405180910390fd5b505050565b60008073ffffffffffffffffffffffffffffffffffffffff168373ffffffffffffffffffffffffffffffffffffffff1614158015611a3a57508273ffffffffffffffffffffffffffffffffffffffff168473ffffffffffffffffffffffffffffffffffffffff1614806119fb57506119fa84846108ce565b5b80611a3957508273ffffffffffffffffffffffffffffffffffffffff16611a2183610afe565b73ffffffffffffffffffffffffffffffffffffffff16145b5b90509392505050565b6000604051905090565b600080fd5b600080fd5b60007fffffffff0000000000000000000000000000000000000000000000000000000082169050919050565b611a8c81611a57565b8114611a9757600080fd5b50565b600081359050611aa981611a83565b92915050565b600060208284031215611ac557611ac4611a4d565b5b6000611ad384828501611a9a565b91505092915050565b60008115159050919050565b611af181611adc565b82525050565b6000602082019050611b0c6000830184611ae8565b92915050565b600081519050919050565b600082825260208201905092915050565b60005b83811015611b4c578082015181840152602081019050611b31565b60008484015250505050565b6000601f19601f8301169050919050565b6000611b7482611b12565b611b7e8185611b1d565b9350611b8e818560208601611b2e565b611b9781611b58565b840191505092915050565b60006020820190508181036000830152611bbc8184611b69565b905092915050565b6000819050919050565b611bd781611bc4565b8114611be257600080fd5b50565b600081359050611bf481611bce565b92915050565b600060208284031215611c1057611c0f611a4d565b5b6000611c1e84828501611be5565b91505092915050565b600073ffffffffffffffffffffffffffffffffffffffff82169050919050565b6000611c5282611c27565b9050919050565b611c6281611c47565b82525050565b6000602082019050611c7d6000830184611c59565b92915050565b611c8c81611c47565b8114611c9757600080fd5b50565b600081359050611ca981611c83565b92915050565b60008060408385031215611cc657611cc5611a4d565b5b6000611cd485828601611c9a565b9250506020611ce585828601611be5565b9150509250929050565b600080600060608486031215611d0857611d07611a4d565b5b6000611d1686828701611c9a565b9350506020611d2786828701611c9a565b9250506040611d3886828701611be5565b9150509250925092565b600060208284031215611d5857611d57611a4d565b5b6000611d6684828501611c9a565b91505092915050565b611d7881611bc4565b82525050565b6000602082019050611d936000830184611d6f565b92915050565b60008060408385031215611db057611daf611a4d565b5b6000611dbe85828601611be5565b9250506020611dcf85828601611be5565b9150509250929050565b611de281611adc565b8114611ded57600080fd5b50565b600081359050611dff81611dd9565b92915050565b60008060408385031215611e1c57611e1b611a4d565b5b6000611e2a85828601611c9a565b9250506020611e3b85828601611df0565b9150509250929050565b600080fd5b600080fd5b7f4e487b7100000000000000000000000000000000000000000000000000000000600052604160045260246000fd5b611e8782611b58565b810181811067ffffffffffffffff82111715611ea657611ea5611e4f565b5b80604052505050565b6000611eb9611a43565b9050611ec58282611e7e565b919050565b600067ffffffffffffffff821115611ee557611ee4611e4f565b5b611eee82611b58565b9050602081019050919050565b82818337600083830152505050565b6000611f1d611f1884611eca565b611eaf565b905082815260208101848484011115611f3957611f38611e4a565b5b611f44848285611efb565b509392505050565b600082601f830112611f6157611f60611e45565b5b8135611f71848260208601611f0a565b91505092915050565b60008060008060808587031215611f9457611f93611a4d565b5b6000611fa287828801611c9a565b9450506020611fb387828801611c9a565b9350506040611fc487828801611be5565b925050606085013567ffffffffffffffff811115611fe557611fe4611a52565b5b611ff187828801611f4c565b91505092959194509250565b6000806040838503121561201457612013611a4d565b5b600061202285828601611c9a565b925050602061203385828601611c9a565b9150509250929050565b7f4e487b7100000000000000000000000000000000000000000000000000000000600052602260045260246000fd5b6000600282049050600182168061208457607f821691505b6020821081036120975761209661203d565b5b50919050565b60006060820190506120b26000830186611c59565b6120bf6020830185611d6f565b6120cc6040830184611c59565b949350505050565b7f4e487b7100000000000000000000000000000000000000000000000000000000600052601160045260246000fd5b600061210e82611bc4565b915061211983611bc4565b9250828201905080821115612131576121306120d4565b5b92915050565b600061214282611bc4565b91507fffffffffffffffffffffffffffffffffffffffffffffffffffffffffffffffff8203612174576121736120d4565b5b600182019050919050565b600081519050919050565b600082825260208201905092915050565b60006121a68261217f565b6121b0818561218a565b93506121c0818560208601611b2e565b6121c981611b58565b840191505092915050565b60006080820190506121e96000830187611c59565b6121f66020830186611c59565b6122036040830185611d6f565b8181036060830152612215818461219b565b905095945050505050565b60008151905061222f81611a83565b92915050565b60006020828403121561224b5761224a611a4d565b5b600061225984828501612220565b91505092915050565b600081905092915050565b7f3c7376672077696474683d22313030707822206865696768743d22313030707860008201527f222076696577426f783d223020302033362e30302033362e30302220786d6c6e60208201527f733d22687474703a2f2f7777772e77332e6f72672f323030302f73766722207860408201527f6d6c6e733a786c696e6b3d22687474703a2f2f7777772e77332e6f72672f313960608201527f39392f786c696e6b2220617269612d68696464656e3d22747275652220726f6c60808201527f653d22696d672220636c6173733d2269636f6e6966792069636f6e6966792d2d60a08201527f7477656d6f6a6922207072657365727665417370656374526174696f3d22784d60c08201527f6964594d6964206d656574222066696c6c3d222334303430343022207374726f60e08201527f6b653d222334303430343022207374726f6b652d77696474683d22302e3732226101008201527f207472616e73666f726d3d226d617472697828312c20302c20302c20312c20306101208201527f2c203029223e3c672069643d225356475265706f5f62674361727269657222206101408201527f7374726f6b652d77696474683d2230223e3c2f673e3c672069643d22535647526101608201527f65706f5f7472616365724361727269657222207374726f6b652d6c696e6563616101808201527f703d22726f756e6422207374726f6b652d6c696e656a6f696e3d22726f756e646101a08201527f22207374726f6b653d222343434343434322207374726f6b652d77696474683d6101c08201527f22302e3231363030303030303030303030303033223e3c2f673e3c672069643d6101e08201527f225356475265706f5f69636f6e43617272696572223e203c706174682066696c6102008201527f6c3d22236666666666662220643d224d33352e3733342031392e3932394333356102208201527f2e3337352031362e36362033352031352033342031336330203020332d3920316102408201527f2d31322e37632d2e3637342d312e3234362d372e34303420312e3638382d31306102608201527f20332e37633020302d342d2e3939382d372d2e393938533131203420313120346102808201527f43382e34303420312e39383820312e3637342d2e3934362031202e33432d31206102a08201527f34203220313320322031334331203135202e3632352031362e36362e323636206102c08201527f31392e393239432d2e3132392032332e3531332e3635372032362e33372031206102e08201527f3237632e33392e37313620322e33363720332e303235203520356334203320316103008201527f302034203132203473382d312031322d3463322e3633332d312e39373520342e6103208201527f36312d342e32383420352d35632e3334332d2e363320312e3132392d332e34386103408201527f372e3733342d372e3037317a223e203c2f706174683e203c706174682066696c6103608201527f6c3d22233335333133322220643d224d31382031392e35633320302033202e356103808201527f203320312e35732d312e3520332d332033732d332d322d332d33732d2e3030316103a08201527f2d312e3520332d312e357a223e203c2f706174683e203c706174682066696c6c6103c08201527f3d22233338333833382220643d224d322033632e3434372d312e33343220352e6103e08201527f3634203120362e3634203243382e36342035203420382033203131633020302d6104008201527f322d352d312d387a6d33322030632d2e3434372d312e3334322d352e363420316104208201527f2d362e363420326330203020342e3634203320352e363420366330203020322d6104408201527f3520312d387a223e203c2f706174683e203c706174682066696c6c3d222366666104608201527f666666662220643d224d342e39333420352e36303343342e39333420342e31386104808201527f3920313120372031302038732d3220312e3630332d3320322e363033732d322e6104a08201527f3036362d342d322e3036362d357a6d32362e31333220304333312e30363620346104c08201527f2e31383920323520372032362038733220312e363033203320322e36303373326104e08201527f2e3036362d3420322e3036362d357a223e203c2f706174683e203c70617468206105008201527f66696c6c3d22233338333833382220643d224d2e373031203235612e352e35206105208201527f30203020312d2e33312d2e383932632e3136322d2e31323720342e30322d332e6105408201527f31322031302e3634382d322e363035632e3237352e30322e3438312e3236312e6105608201527f34362e353336632d2e3032312e3237352d2e3235372e3530312d2e3533372e346105808201527f36632d362e3233332d2e3437342d392e39313520322e3336362d392e393531206105a08201527f322e333935612e35312e35312030203020312d2e33312e3130367a6d382e38366105c08201527f382d342e363633612e3531322e3531322030203020312d2e3134392d2e3032326105e08201527f632d342e37392d312e3439372d382e3733372d2e3334372d382e3737372d2e336106008201527f3336612e3439392e3439392030203120312d2e3238382d2e393537632e3137336106208201527f2d2e30353220342e3238362d312e32343720392e3336322e333338612e352e356106408201527f2030203020312d2e3134382e3937377a4d33352e323939203235612e352e35206106608201527f3020302030202e33312d2e383932632d2e3136322d2e3132372d342e30322d336106808201527f2e31322d31302e3634382d322e363035612e3439392e3439392030203020302d6106a08201527f2e34362e353336632e3032312e3237352e3235372e3530312e3533372e3436636106c08201527f362e3233332d2e34373420392e39313520322e33363620392e39353120322e336106e08201527f3935612e35312e3531203020302030202e33312e3130367a6d2d382e3836382d6107008201527f342e363633632e3034392030202e312d2e3030372e3134392d2e30323263342e6107208201527f37392d312e34393720382e3733372d2e33343720382e3737372d2e333336612e6107408201527f3439392e343939203020312030202e3238382d2e393537632d2e3137332d2e306107608201527f35322d342e3238362d312e3234372d392e3336322e333338612e352e352030206107808201527f302030202e3134382e3937377a223e203c2f706174683e203c706174682066696107a08201527f6c6c3d22233437343734372220643d224d32352e3332372032352e363232612e6107c08201527f352e352030203020302d2e3535312d2e3036396c2d342032632d312e3837312e6107e08201527f3933352d362e3732372e3934372d362e3737362e393437612e352e35203020306108008201527f20302d2e32352e393333762e303031682e303031762e303031632e3037312e306108208201527f342e3135332e3036332e32342e30363568372e30303863322e363538203020346108408201527f2e3038392d322e31383620342e3437352d332e333432612e352e3520302030206108608201527f302d2e3134372d2e3533367a223e203c2f706174683e203c672066696c6c3d226108808201527f23343734373437223e203c656c6c697073652063783d223132222063793d22316108a08201527f342e35222072783d2232222072793d22332e35223e203c2f656c6c697073653e6108c08201527f203c656c6c697073652063783d223234222063793d2231342e35222072783d226108e08201527f32222072793d22332e35223e203c2f656c6c697073653e20000000000000000061090082015250565b6000612d9561091883612262565b9150612da08261226d565b61091882019050919050565b7f3c7061746820643d224d3231203132612e3939392e3939392030203020312d2e60008201527f3730372d312e3730374332342e35333720362e3034392032382e38313920362060208201527f3239203661312031203020302031202e3030352032632d2e3036352e3030312d60408201527f332e3638372e3039362d372e32393820332e373037412e3939372e393937203060608201527f203020312032312031327a6d2d362030612e3939372e3939372030203020312d60808201527f2e3730372d2e3239334331302e36363720382e30383220372e3033312038203660a08201527f2e393935203861312e30303220312e3030322030203020312d2e3939322d312e60c08201527f303035412e3939372e39393720302030203120372036632e3138203020342e3460e08201527f36332e30343920382e37303720342e323933412e3939392e39393920302030206101008201527f312031352031327a223e203c2f706174683e000000000000000000000000000061012082015250565b6000612f3b61013283612262565b9150612f4682612dac565b61013282019050919050565b7f3c2f673e203c2f673e3c2f7376673e0000000000000000000000000000000000600082015250565b6000612f88600f83612262565b9150612f9382612f52565b600f82019050919050565b6000612fa982612d87565b9150612fb482612f2d565b9150612fbf82612f7b565b9150819050919050565b7f646174613a696d6167652f7376672b786d6c3b6261736536342c000000000000600082015250565b6000612fff601a83612262565b915061300a82612fc9565b601a82019050919050565b600061302082611b12565b61302a8185612262565b935061303a818560208601611b2e565b80840191505092915050565b600061305182612ff2565b915061305d8284613015565b915081905092915050565b7f7b226e616d65223a225361697961506574222c2022696d616765223a22000000600082015250565b600061309e601d83612262565b91506130a982613068565b601d82019050919050565b600081905092915050565b60006130ca8261217f565b6130d481856130b4565b93506130e4818560208601611b2e565b80840191505092915050565b7f222c20226465736372697074696f6e223a2022227d0000000000000000000000600082015250565b6000613126601583612262565b9150613131826130f0565b601582019050919050565b600061314782613091565b915061315382846130bf565b915061315e82613119565b915081905092915050565b7f646174613a6170706c69636174696f6e2f6a736f6e3b6261736536342c000000600082015250565b600061319f601d83612262565b91506131aa82613169565b601d82019050919050565b60006131c082613192565b91506131cc8284613015565b915081905092915050565b7f3c7376672077696474683d22313030707822206865696768743d22313030707860008201527f222076696577426f783d223020302033362e30302033362e30302220786d6c6e60208201527f733d22687474703a2f2f7777772e77332e6f72672f323030302f73766722207860408201527f6d6c6e733a786c696e6b3d22687474703a2f2f7777772e77332e6f72672f313960608201527f39392f786c696e6b2220617269612d68696464656e3d22747275652220726f6c60808201527f653d22696d672220636c6173733d2269636f6e6966792069636f6e6966792d2d60a08201527f7477656d6f6a6922207072657365727665417370656374526174696f3d22784d60c08201527f6964594d6964206d656574222066696c6c3d222334303430343022207374726f60e08201527f6b653d222334303430343022207374726f6b652d77696474683d22302e3732226101008201527f207472616e73666f726d3d226d617472697828312c20302c20302c20312c20306101208201527f2c203029223e000000000000000000000000000000000000000000000000000061014082015250565b600061338d61014683612262565b9150613398826131d7565b61014682019050919050565b7f3c672069643d225356475265706f5f62674361727269657222207374726f6b6560008201527f2d77696474683d2230223e3c2f673e3c672069643d225356475265706f5f747260208201527f616365724361727269657222207374726f6b652d6c696e656361703d22726f7560408201527f6e6422207374726f6b652d6c696e656a6f696e3d22726f756e6422207374726f60608201527f6b653d222343434343434322207374726f6b652d77696474683d22302e32313660808201527f3030303030303030303030303033223e3c2f673e3c672069643d22535647526560a08201527f706f5f69636f6e43617272696572223e203c706174682066696c6c3d2223666660c08201527f666666662220643d224d33352e3733342031392e3932394333352e333735203160e08201527f362e36362033352031352033342031336330203020332d3920312d31322e37636101008201527f2d2e3637342d312e3234362d372e34303420312e3638382d313020332e3763306101208201527f20302d342d2e3939382d372d2e3939385331312034203131203443382e3430346101408201527f20312e39383820312e3637342d2e3934362031202e33432d31203420322031336101608201527f20322031334331203135202e3632352031362e36362e3236362031392e3932396101808201527f432d2e3132392032332e3531332e3635372032362e33372031203237632e33396101a08201527f2e37313620322e33363720332e303235203520356334203320313020342031326101c08201527f203473382d312031322d3463322e3633332d312e39373520342e36312d342e326101e08201527f383420352d35632e3334332d2e363320312e3132392d332e3438372e3733342d6102008201527f372e3037317a223e203c2f706174683e203c706174682066696c6c3d222365666102208201527f653336322220643d224d31382031392e35633320302033202e35203320312e356102408201527f732d312e3520332d332033732d332d322d332d33732d2e3030312d312e3520336102608201527f2d312e357a223e203c2f706174683e203c706174682066696c6c3d22236566656102808201527f3336322220643d224d322033632e3434372d312e33343220352e3634203120366102a08201527f2e3634203243382e36342035203420382033203131633020302d322d352d312d6102c08201527f387a6d33322030632d2e3434372d312e3334322d352e363420312d362e3634206102e08201527f326330203020342e3634203320352e363420366330203020322d3520312d387a6103008201527f223e203c2f706174683e203c706174682066696c6c3d222366666666666622206103208201527f643d224d342e39333420352e36303343342e39333420342e31383920313120376103408201527f2031302038732d3220312e3630332d3320322e363033732d322e3036362d342d6103608201527f322e3036362d357a6d32362e31333220304333312e30363620342e31383920326103808201527f3520372032362038733220312e363033203320322e36303373322e3036362d346103a08201527f20322e3036362d357a223e203c2f706174683e203c706174682066696c6c3d226103c08201527f236566653336322220643d224d2e373031203235612e352e352030203020312d6103e08201527f2e33312d2e383932632e3136322d2e31323720342e30322d332e31322031302e6104008201527f3634382d322e363035632e3237352e30322e3438312e3236312e34362e3533366104208201527f632d2e3032312e3237352d2e3235372e3530312d2e3533372e3436632d362e326104408201527f33332d2e3437342d392e39313520322e3336362d392e39353120322e333935616104608201527f2e35312e35312030203020312d2e33312e3130367a6d382e3836382d342e36366104808201527f33612e3531322e3531322030203020312d2e3134392d2e303232632d342e37396104a08201527f2d312e3439372d382e3733372d2e3334372d382e3737372d2e333336612e34396104c08201527f392e3439392030203120312d2e3238382d2e393537632e3137332d2e303532206104e08201527f342e3238362d312e32343720392e3336322e333338612e352e352030203020316105008201527f2d2e3134382e3937377a4d33352e323939203235612e352e35203020302030206105208201527f2e33312d2e383932632d2e3136322d2e3132372d342e30322d332e31322d31306105408201527f2e3634382d322e363035612e3439392e3439392030203020302d2e34362e35336105608201527f36632e3032312e3237352e3235372e3530312e3533372e343663362e3233332d6105808201527f2e34373420392e39313520322e33363620392e39353120322e333935612e35316105a08201527f2e3531203020302030202e33312e3130367a6d2d382e3836382d342e363633636105c08201527f2e3034392030202e312d2e3030372e3134392d2e30323263342e37392d312e346105e08201527f393720382e3733372d2e33343720382e3737372d2e333336612e3439392e34396106008201527f39203020312030202e3238382d2e393537632d2e3137332d2e3035322d342e326106208201527f38362d312e3234372d392e3336322e333338612e352e35203020302030202e316106408201527f34382e3937377a223e203c2f706174683e203c706174682066696c6c3d2223656106608201527f66653336322220643d224d32352e3332372032352e363232612e352e352030206106808201527f3020302d2e3535312d2e3036396c2d342032632d312e3837312e3933352d362e6106a08201527f3732372e3934372d362e3737362e393437612e352e352030203020302d2e32356106c08201527f2e393333762e303031682e303031762e303031632e3037312e30342e3135332e6106e08201527f3036332e32342e30363568372e30303863322e363538203020342e3038392d326107008201527f2e31383620342e3437352d332e333432612e352e352030203020302d2e3134376107208201527f2d2e3533367a223e203c2f706174683e203c672066696c6c3d222365666533366107408201527f32223e203c656c6c697073652063783d223132222063793d2231342e352220726107608201527f783d2232222072793d22332e35223e203c2f656c6c697073653e203c656c6c696107808201527f7073652063783d223234222063793d2231342e35222072783d2232222072793d6107a08201527f22332e35223e203c2f656c6c697073653e203c7061746820643d224d323120316107c08201527f32612e3939392e3939392030203020312d2e3730372d312e3730374332342e356107e08201527f333720362e3034392032382e38313920362032392036613120312030203020316108008201527f202e3030352032632d2e3036352e3030312d332e3638372e3039362d372e32396108208201527f3820332e373037412e3939372e3939372030203020312032312031327a6d2d366108408201527f2030612e3939372e3939372030203020312d2e3730372d2e3239334331302e366108608201527f363720382e30383220372e303331203820362e393935203861312e30303220316108808201527f2e3030322030203020312d2e3939322d312e303035412e3939372e39393720306108a08201527f2030203120372036632e3138203020342e3436332e30343920382e37303720346108c08201527f2e323933412e3939392e3939392030203020312031352031327a223e203c2f706108e08201527f6174683e203c2f673e203c2f673e3c2f7376673e00000000000000000000000061090082015250565b6000613ecc61091483612262565b9150613ed7826133a4565b61091482019050919050565b7f3c7061746820643d224d3231203132612e3939392e3939392030203020312d2e60008201527f3730372d312e3730374332342e35333720362e3034392032382e38313920362060208201527f3239203661312031203020302031202e3030352032632d2e3036352e3030312d60408201527f332e3638372e3039362d372e32393820332e373037412e3939372e393937203060608201527f203020312032312031327a6d2d362030612e3939372e3939372030203020312d60808201527f2e3730372d2e3239334331302e36363720382e30383220372e3033312038203660a08201527f2e393935203861312e30303220312e3030322030203020312d2e3939322d312e60c08201527f303035412e3939372e39393720302030203120372036632e3138203020342e3460e08201527f36332e30343920382e37303720342e323933412e3939392e39393920302030206101008201527f312031352031327a223e3c2f706174683e00000000000000000000000000000061012082015250565b600061407261013183612262565b915061407d82613ee3565b61013182019050919050565b60006140948261337f565b915061409f82613ebe565b91506140aa82614064565b91506140b582612f7b565b9150819050919050565b7f3c672069643d225356475265706f5f62674361727269657222207374726f6b6560008201527f2d77696474683d2230223e3c2f673e3c672069643d225356475265706f5f747260208201527f616365724361727269657222207374726f6b652d6c696e656361703d22726f7560408201527f6e6422207374726f6b652d6c696e656a6f696e3d22726f756e6422207374726f60608201527f6b653d222343434343434322207374726f6b652d77696474683d22302e32313660808201527f3030303030303030303030303033223e3c2f673e3c672069643d22535647526560a08201527f706f5f69636f6e43617272696572223e203c706174682066696c6c3d2223666660c08201527f666666662220643d224d33352e3733342031392e3932394333352e333735203160e08201527f362e36362033352031352033342031336330203020332d3920312d31322e37636101008201527f2d2e3637342d312e3234362d372e34303420312e3638382d313020332e3763306101208201527f20302d342d2e3939382d372d2e3939385331312034203131203443382e3430346101408201527f20312e39383820312e3637342d2e3934362031202e33432d31203420322031336101608201527f20322031334331203135202e3632352031362e36362e3236362031392e3932396101808201527f432d2e3132392032332e3531332e3635372032362e33372031203237632e33396101a08201527f2e37313620322e33363720332e303235203520356334203320313020342031326101c08201527f203473382d312031322d3463322e3633332d312e39373520342e36312d342e326101e08201527f383420352d35632e3334332d2e363320312e3132392d332e3438372e3733342d6102008201527f372e3037317a223e203c2f706174683e203c706174682066696c6c3d222366666102208201527f373037302220643d224d31382031392e35633320302033202e35203320312e356102408201527f732d312e3520332d332033732d332d322d332d33732d2e3030312d312e3520336102608201527f2d312e357a223e203c2f706174683e203c706174682066696c6c3d22236666376102808201527f3037302220643d224d322033632e3434372d312e33343220352e3634203120366102a08201527f2e3634203243382e36342035203420382033203131633020302d322d352d312d6102c08201527f387a6d33322030632d2e3434372d312e3334322d352e363420312d362e3634206102e08201527f326330203020342e3634203320352e363420366330203020322d3520312d387a6103008201527f223e203c2f706174683e203c706174682066696c6c3d222366666666666622206103208201527f643d224d342e39333420352e36303343342e39333420342e31383920313120376103408201527f2031302038732d3220312e3630332d3320322e363033732d322e3036362d342d6103608201527f322e3036362d357a6d32362e31333220304333312e30363620342e31383920326103808201527f3520372032362038733220312e363033203320322e36303373322e3036362d346103a08201527f20322e3036362d357a223e203c2f706174683e203c706174682066696c6c3d226103c08201527f236666373037302220643d224d2e373031203235612e352e352030203020312d6103e08201527f2e33312d2e383932632e3136322d2e31323720342e30322d332e31322031302e6104008201527f3634382d322e363035632e3237352e30322e3438312e3236312e34362e3533366104208201527f632d2e3032312e3237352d2e3235372e3530312d2e3533372e3436632d362e326104408201527f33332d2e3437342d392e39313520322e3336362d392e39353120322e333935616104608201527f2e35312e35312030203020312d2e33312e3130367a6d382e3836382d342e36366104808201527f33612e3531322e3531322030203020312d2e3134392d2e303232632d342e37396104a08201527f2d312e3439372d382e3733372d2e3334372d382e3737372d2e333336612e34396104c08201527f392e3439392030203120312d2e3238382d2e393537632e3137332d2e303532206104e08201527f342e3238362d312e32343720392e3336322e333338612e352e352030203020316105008201527f2d2e3134382e3937377a4d33352e323939203235612e352e35203020302030206105208201527f2e33312d2e383932632d2e3136322d2e3132372d342e30322d332e31322d31306105408201527f2e3634382d322e363035612e3439392e3439392030203020302d2e34362e35336105608201527f36632e3032312e3237352e3235372e3530312e3533372e343663362e3233332d6105808201527f2e34373420392e39313520322e33363620392e39353120322e333935612e35316105a08201527f2e3531203020302030202e33312e3130367a6d2d382e3836382d342e363633636105c08201527f2e3034392030202e312d2e3030372e3134392d2e30323263342e37392d312e346105e08201527f393720382e3733372d2e33343720382e3737372d2e333336612e3439392e34396106008201527f39203020312030202e3238382d2e393537632d2e3137332d2e3035322d342e326106208201527f38362d312e3234372d392e3336322e333338612e352e35203020302030202e316106408201527f34382e3937377a223e203c2f706174683e203c706174682066696c6c3d2223666106608201527f66373037302220643d224d32352e3332372032352e363232612e352e352030206106808201527f3020302d2e3535312d2e3036396c2d342032632d312e3837312e3933352d362e6106a08201527f3732372e3934372d362e3737362e393437612e352e352030203020302d2e32356106c08201527f2e393333762e303031682e303031762e303031632e3037312e30342e3135332e6106e08201527f3036332e32342e30363568372e30303863322e363538203020342e3038392d326107008201527f2e31383620342e3437352d332e333432612e352e352030203020302d2e3134376107208201527f2d2e3533367a223e203c2f706174683e203c672066696c6c3d222366663730376107408201527f30223e203c656c6c697073652063783d223132222063793d2231342e352220726107608201527f783d2232222072793d22332e35223e203c2f656c6c697073653e203c656c6c696107808201527f7073652063783d223234222063793d2231342e35222072783d2232222072793d6107a08201527f22332e35223e203c2f656c6c697073653e203c7061746820643d224d323120316107c08201527f32612e3939392e3939392030203020312d2e3730372d312e3730374332342e356107e08201527f333720362e3034392032382e38313920362032392036613120312030203020316108008201527f202e3030352032632d2e3036352e3030312d332e3638372e3039362d372e32396108208201527f3820332e373037412e3939372e3939372030203020312032312031327a6d2d366108408201527f2030612e3939372e3939372030203020312d2e3730372d2e3239334331302e366108608201527f363720382e30383220372e303331203820362e393935203861312e30303220316108808201527f2e3030322030203020312d2e3939322d312e303035412e3939372e39393720306108a08201527f2030203120372036632e3138203020342e3436332e30343920382e37303720346108c08201527f2e323933412e3939392e3939392030203020312031352031327a223e200000006108e082015250565b6000614bc06108fd83612262565b9150614bcb826140bf565b6108fd82019050919050565b7f3c2f706174683e203c2f673e203c2f673e3c2f7376673e000000000000000000600082015250565b6000614c0d601783612262565b9150614c1882614bd7565b601782019050919050565b6000614c2e8261337f565b9150614c3982614bb2565b9150614c4482614c00565b9150819050919050565b7f4e487b7100000000000000000000000000000000000000000000000000000000600052601260045260246000fd5b6000614c8882611bc4565b9150614c9383611bc4565b925082614ca357614ca2614c4e565b5b828204905092915050565b6000614cb982611bc4565b9150614cc483611bc4565b9250828202614cd281611bc4565b91508282048414831517614ce957614ce86120d4565b5b5092915050565b6000604082019050614d056000830185611c59565b614d126020830184611d6f565b939250505056fe4142434445464748494a4b4c4d4e4f505152535455565758595a6162636465666768696a6b6c6d6e6f707172737475767778797a303132333435363738392b2fa26469706673582212203f012655a7dce0dc566f15106d34001055857554fe886740d1aa6e7416c7dbcd64736f6c63430008140033",
  "devdoc": {
    "errors": {
      "ERC721IncorrectOwner(address,uint256,address)": [
        {
          "details": "Indicates an error related to the ownership over a particular token. Used in transfers.",
          "params": {
            "owner": "Address of the current owner of a token.",
            "sender": "Address whose tokens are being transferred.",
            "tokenId": "Identifier number of a token."
          }
        }
      ],
      "ERC721InsufficientApproval(address,uint256)": [
        {
          "details": "Indicates a failure with the `operator`s approval. Used in transfers.",
          "params": {
            "operator": "Address that may be allowed to operate on tokens without being their owner.",
            "tokenId": "Identifier number of a token."
          }
        }
      ],
      "ERC721InvalidApprover(address)": [
        {
          "details": "Indicates a failure with the `approver` of a token to be approved. Used in approvals.",
          "params": {
            "approver": "Address initiating an approval operation."
          }
        }
      ],
      "ERC721InvalidOperator(address)": [
        {
          "details": "Indicates a failure with the `operator` to be approved. Used in approvals.",
          "params": {
            "operator": "Address that may be allowed to operate on tokens without being their owner."
          }
        }
      ],
      "ERC721InvalidOwner(address)": [
        {
          "details": "Indicates that an address can't be an owner. For example, `address(0)` is a forbidden owner in EIP-20. Used in balance queries.",
          "params": {
            "owner": "Address of the current owner of a token."
          }
        }
      ],
      "ERC721InvalidReceiver(address)": [
        {
          "details": "Indicates a failure with the token `receiver`. Used in transfers.",
          "params": {
            "receiver": "Address to which tokens are being transferred."
          }
        }
      ],
      "ERC721InvalidSender(address)": [
        {
          "details": "Indicates a failure with the token `sender`. Used in transfers.",
          "params": {
            "sender": "Address whose tokens are being transferred."
          }
        }
      ],
      "ERC721NonexistentToken(uint256)": [
        {
          "details": "Indicates a `tokenId` whose `owner` is the zero address.",
          "params": {
            "tokenId": "Identifier number of a token."
          }
        }
      ],
      "EnforcedPause()": [
        {
          "details": "The operation failed because the contract is paused."
        }
      ],
      "ExpectedPause()": [
        {
          "details": "The operation failed because the contract is not paused."
        }
      ]
    },
    "events": {
      "Approval(address,address,uint256)": {
        "details": "Emitted when `owner` enables `approved` to manage the `tokenId` token."
      },
      "ApprovalForAll(address,address,bool)": {
        "details": "Emitted when `owner` enables or disables (`approved`) `operator` to manage all of its assets."
      },
      "Paused(address)": {
        "details": "Emitted when the pause is triggered by `account`."
      },
      "Transfer(address,address,uint256)": {
        "details": "Emitted when `tokenId` token is transferred from `from` to `to`."
      },
      "Unpaused(address)": {
        "details": "Emitted when the pause is lifted by `account`."
      }
    },
    "kind": "dev",
    "methods": {
      "approve(address,uint256)": {
        "details": "See {IERC721-approve}."
      },
      "balanceOf(address)": {
        "details": "See {IERC721-balanceOf}."
      },
      "burn(uint256)": {
        "details": "Burns `tokenId`. See {ERC721-_burn}. Requirements: - The caller must own `tokenId` or be an approved operator."
      },
      "getApproved(uint256)": {
        "details": "See {IERC721-getApproved}."
      },
      "isApprovedForAll(address,address)": {
        "details": "See {IERC721-isApprovedForAll}."
      },
      "name()": {
        "details": "See {IERC721Metadata-name}."
      },
      "ownerOf(uint256)": {
        "details": "See {IERC721-ownerOf}."
      },
      "paused()": {
        "details": "Returns true if the contract is paused, and false otherwise."
      },
      "safeTransferFrom(address,address,uint256)": {
        "details": "See {IERC721-safeTransferFrom}."
      },
      "safeTransferFrom(address,address,uint256,bytes)": {
        "details": "See {IERC721-safeTransferFrom}."
      },
      "setApprovalForAll(address,bool)": {
        "details": "See {IERC721-setApprovalForAll}."
      },
      "supportsInterface(bytes4)": {
        "details": "See {IERC165-supportsInterface}."
      },
      "symbol()": {
        "details": "See {IERC721Metadata-symbol}."
      },
      "tokenURI(uint256)": {
        "details": "See {IERC721Metadata-tokenURI}."
      },
      "transferFrom(address,address,uint256)": {
        "details": "See {IERC721-transferFrom}."
      }
    },
    "version": 1
  },
  "userdoc": {
    "kind": "user",
    "methods": {},
    "version": 1
  },
  "storageLayout": {
    "storage": [
      {
        "astId": 6487,
        "contract": "contracts/SaiyaPetTest.sol:SaiyaPetTest",
        "label": "pets",
        "offset": 0,
        "slot": "0",
        "type": "t_mapping(t_uint256,t_struct(Trait)6482_storage)"
      },
      {
        "astId": 1156,
        "contract": "contracts/SaiyaPetTest.sol:SaiyaPetTest",
        "label": "_name",
        "offset": 0,
        "slot": "1",
        "type": "t_string_storage"
      },
      {
        "astId": 1158,
        "contract": "contracts/SaiyaPetTest.sol:SaiyaPetTest",
        "label": "_symbol",
        "offset": 0,
        "slot": "2",
        "type": "t_string_storage"
      },
      {
        "astId": 1162,
        "contract": "contracts/SaiyaPetTest.sol:SaiyaPetTest",
        "label": "_owners",
        "offset": 0,
        "slot": "3",
        "type": "t_mapping(t_uint256,t_address)"
      },
      {
        "astId": 1166,
        "contract": "contracts/SaiyaPetTest.sol:SaiyaPetTest",
        "label": "_balances",
        "offset": 0,
        "slot": "4",
        "type": "t_mapping(t_address,t_uint256)"
      },
      {
        "astId": 1170,
        "contract": "contracts/SaiyaPetTest.sol:SaiyaPetTest",
        "label": "_tokenApprovals",
        "offset": 0,
        "slot": "5",
        "type": "t_mapping(t_uint256,t_address)"
      },
      {
        "astId": 1176,
        "contract": "contracts/SaiyaPetTest.sol:SaiyaPetTest",
        "label": "_operatorApprovals",
        "offset": 0,
        "slot": "6",
        "type": "t_mapping(t_address,t_mapping(t_address,t_bool))"
      },
      {
        "astId": 2445,
        "contract": "contracts/SaiyaPetTest.sol:SaiyaPetTest",
        "label": "_paused",
        "offset": 0,
        "slot": "7",
        "type": "t_bool"
      },
      {
        "astId": 6337,
        "contract": "contracts/SaiyaPetTest.sol:SaiyaPetTest",
        "label": "_nextTokenId",
        "offset": 0,
        "slot": "8",
        "type": "t_uint256"
      }
    ],
    "types": {
      "t_address": {
        "encoding": "inplace",
        "label": "address",
        "numberOfBytes": "20"
      },
      "t_bool": {
        "encoding": "inplace",
        "label": "bool",
        "numberOfBytes": "1"
      },
      "t_mapping(t_address,t_bool)": {
        "encoding": "mapping",
        "key": "t_address",
        "label": "mapping(address => bool)",
        "numberOfBytes": "32",
        "value": "t_bool"
      },
      "t_mapping(t_address,t_mapping(t_address,t_bool))": {
        "encoding": "mapping",
        "key": "t_address",
        "label": "mapping(address => mapping(address => bool))",
        "numberOfBytes": "32",
        "value": "t_mapping(t_address,t_bool)"
      },
      "t_mapping(t_address,t_uint256)": {
        "encoding": "mapping",
        "key": "t_address",
        "label": "mapping(address => uint256)",
        "numberOfBytes": "32",
        "value": "t_uint256"
      },
      "t_mapping(t_uint256,t_address)": {
        "encoding": "mapping",
        "key": "t_uint256",
        "label": "mapping(uint256 => address)",
        "numberOfBytes": "32",
        "value": "t_address"
      },
      "t_mapping(t_uint256,t_struct(Trait)6482_storage)": {
        "encoding": "mapping",
        "key": "t_uint256",
        "label": "mapping(uint256 => struct Pet.Trait)",
        "numberOfBytes": "32",
        "value": "t_struct(Trait)6482_storage"
      },
      "t_string_storage": {
        "encoding": "bytes",
        "label": "string",
        "numberOfBytes": "32"
      },
      "t_struct(Trait)6482_storage": {
        "encoding": "inplace",
        "label": "struct Pet.Trait",
        "members": [
          {
            "astId": 6477,
            "contract": "contracts/SaiyaPetTest.sol:SaiyaPetTest",
            "label": "level",
            "offset": 0,
            "slot": "0",
            "type": "t_uint256"
          },
          {
            "astId": 6479,
            "contract": "contracts/SaiyaPetTest.sol:SaiyaPetTest",
            "label": "exp",
            "offset": 0,
            "slot": "1",
            "type": "t_uint256"
          },
          {
            "astId": 6481,
            "contract": "contracts/SaiyaPetTest.sol:SaiyaPetTest",
            "label": "hp",
            "offset": 0,
            "slot": "2",
            "type": "t_uint256"
          }
        ],
        "numberOfBytes": "96"
      },
      "t_uint256": {
        "encoding": "inplace",
        "label": "uint256",
        "numberOfBytes": "32"
      }
    }
  }
}